:020000040800F2
:1000000000000220B9320008DD2F0008E32F0008AD
:10001000E92F0008EF2F0008F52F0008000000006E
:10002000000000000000000000000000FB2F00089E
:1000300009300008000000001730000825300008D3
:10004000093300083130000809330008093300087B
:100050003D300008493000080933000857300008D7
:10006000653000087330000881300008093300084B
:100070000933000809330008093300080933000870
:1000800009330008093300089130000809330008DB
:10009000093300080933000809330008B9300008A3
:1000A0000933000809330008093300080933000840
:1000B000D530000809330008093300080933000867
:1000C0000933000809330008093300080933000820
:1000D0000933000809330008093300080933000810
:1000E0000933000809330008093300080933000800
:1000F00009330008093300080933000809330008F0
:1001000009330008093300080933000809330008DF
:1001100009330008093300080933000809330008CF
:1001200009330008093300080933000809330008BF
:1001300009330008093300080933000809330008AF
:10014000093300080933000809330008E9300008C2
:10015000093300080933000809330008093300088F
:10016000093300080933000809330008093300087F
:1001700009330008093300080933000800000000B3
:0801800009330008FD300008FE
:1001900010B5054C237833B9044B13B10448AFF3C1
:1001A00000800123237010BDD40200200000000055
:1001B0005006010808B5034B1BB103490348AFF3D0
:1001C000008008BD00000000D80200205006010891
:1001D000034613F8012B002AFBD1181A0138704787
:1001E00001F0FF01102A2BDB10F0070F08D010F8E8
:1001F000013B013A8B422DD010F0070F42B3F6D1EC
:10020000F0B441EA012141EA014122F007047FF004
:1002100000070023F0E80256083C85EA010586EA5B
:10022000010685FA47F5A3FA87F586FA47F6A5FA97
:1002300087F68EB9EED1F0BC01F0FF0102F00702A3
:1002400032B110F8013B013A83EA010313B1F8D14E
:100250000020704701387047002D06BF354603382F
:10026000073815F0010F07D1013015F4807F02BF68
:10027000013015F4C03F0130F0BC0138704700BFB9
:1002800081F0004102E000BF83F0004330B54FEA47
:1002900041044FEA430594EA050F08BF90EA020FB4
:1002A0001FBF54EA000C55EA020C7FEA645C7FEA47
:1002B000655C00F0E2804FEA5454D4EB5555B8BF6A
:1002C0006D420CDD2C4480EA020281EA030382EADB
:1002D000000083EA010180EA020281EA0303362D6D
:1002E00088BF30BD11F0004F4FEA01314FF4801C40
:1002F0004CEA113102D0404261EB410113F0004F52
:100300004FEA03334CEA133302D0524263EB430308
:1003100094EA050F00F0A780A4F10104D5F1200EA6
:100320000DDB02FA0EFC22FA05F2801841F1000101
:1003300003FA0EF2801843FA05F359410EE0A5F1D5
:1003400020050EF1200E012A03FA0EFC28BF4CF006
:10035000020C43FA05F3C01851EBE37101F00045BC
:1003600007D54FF0000EDCF1000C7EEB00006EEBC9
:100370000101B1F5801F1BD3B1F5001F0CD3490853
:100380005FEA30004FEA3C0C04F101044FEA4452AA
:1003900012F5800F80F09A80BCF1004F08BF5FEA31
:1003A000500C50F1000041EB045141EA050130BD11
:1003B0005FEA4C0C404141EB0101013C28BFB1F523
:1003C000801FE9D291F0000F04BF01460020B1FA6E
:1003D00081F308BF2033A3F10B03B3F120020CDA41
:1003E0000C3208DD02F1140CC2F10C0201FA0CF01F
:1003F00021FA02F10CE002F11402D8BFC2F1200C84
:1004000001FA02F120FA0CFCDCBF41EA0C01904039
:10041000E41AA2BF01EB0451294330BD6FEA040482
:100420001F3C1CDA0C340EDC04F11404C4F120026D
:1004300020FA04F001FA02F340EA030021FA04F37F
:1004400045EA030130BDC4F10C04C4F1200220FAD6
:1004500002F001FA04F340EA0300294630BD21FA14
:1004600004F0294630BD94F0000F83F4801306BFDA
:1004700081F480110134013D4EE77FEA645C18BFCE
:100480007FEA655C29D094EA050F08BF90EA020F65
:1004900005D054EA000C04BF1946104630BD91EA5D
:1004A000030F1EBF0021002030BD5FEA545C05D160
:1004B0004000494128BF41F0004130BD14F580049F
:1004C0003CBF01F5801130BD01F0004545F0FE4113
:1004D00041F470014FF0000030BD7FEA645C1ABF48
:1004E000194610467FEA655C1CBF0B46024650EA7F
:1004F000013406BF52EA033591EA030F41F40021AB
:1005000030BD00BF90F0000F04BF0021704730B530
:100510004FF4806404F132044FF000054FF0000105
:1005200050E700BF90F0000F04BF0021704730B5C6
:100530004FF4806404F1320410F0004548BF40429B
:100540004FF000013EE700BF42004FEAE2014FEAF0
:1005500031014FEA02701FBF12F07F4393F07F4FCB
:1005600081F06051704732F07F4208BF704793F0CE
:100570007F4F04BF41F40021704730B54FF46074E1
:1005800001F0004521F000411CE700BF50EA0102E4
:1005900008BF704730B54FF000050AE050EA01028D
:1005A00008BF704730B511F0004502D5404261EBFD
:1005B00041014FF4806404F132045FEA915C3FF43E
:1005C000D8AE4FF003025FEADC0C18BF03325FEADB
:1005D000DC0C18BF033202EBDC02C2F1200300FA8C
:1005E00003FC20FA02F001FA03FE40EA0E0021FAB1
:1005F00002F11444BDE600BF70B54FF0FF0C4CF49F
:10060000E06C1CEA11541DBF1CEA135594EA0C0F50
:1006100095EA0C0F00F0DEF82C4481EA030621EA8B
:100620004C5123EA4C5350EA013518BF52EA0335C6
:1006300041F4801143F4801338D0A0FB02CE4FF078
:100640000005E1FB02E506F00042E0FB03E54FF0A8
:100650000006E1FB03569CF0000F18BF4EF0010EA0
:10066000A4F1FF04B6F5007F64F5407404D25FEA9C
:100670004E0E6D4146EB060642EAC62141EA55514F
:100680004FEAC52040EA5E504FEACE2EB4F1FD0C91
:1006900088BFBCF5E06F1ED8BEF1004F08BF5FEA0F
:1006A000500E50F1000041EB045170BD06F00046C1
:1006B00046EA010140EA020081EA0301B4EB5C046E
:1006C000C2BFD4EB0C0541EA045170BD41F4801166
:1006D0004FF0000E013C00F3AB8014F1360FDEBF8B
:1006E000002001F0004170BDC4F10004203C35DA67
:1006F0000C341BDC04F11404C4F1200500FA05F3EA
:1007000020FA04F001FA05F240EA020001F000428A
:1007100021F0004110EBD37021FA04F642EB060100
:100720005EEA430E08BF20EAD37070BDC4F10C042A
:10073000C4F1200500FA04F320FA05F001FA04F2EE
:1007400040EA020001F0004110EBD37041F10001DA
:100750005EEA430E08BF20EAD37070BDC4F12005E5
:1007600000FA05F24EEA020E20FA04F301FA05F24D
:1007700043EA020321FA04F001F0004121FA04F2F5
:1007800020EA020000EBD3705EEA430E08BF20EAC5
:10079000D37070BD94F0000F0FD101F000464000FF
:1007A00041EB010111F4801F08BF013CF7D041EA81
:1007B000060195F0000F18BF704703F00046520085
:1007C00043EB030313F4801F08BF013DF7D043EA56
:1007D0000603704794EA0C0F0CEA135518BF95EA0C
:1007E0000C0F0CD050EA410618BF52EA4306D1D193
:1007F00081EA030101F000414FF0000070BD50EAB2
:10080000410606BF1046194652EA430619D094EA3B
:100810000C0F02D150EA013613D195EA0C0F05D125
:1008200052EA03361CBF104619460AD181EA030179
:1008300001F0004141F0FE4141F470014FF0000031
:1008400070BD41F0FE4141F4780170BD70B54FF0CC
:10085000FF0C4CF4E06C1CEA11541DBF1CEA13554C
:1008600094EA0C0F95EA0C0F00F0A7F8A4EB05042E
:1008700081EA030E52EA03354FEA013100F0888025
:100880004FEA03334FF0805545EA131343EA1263EE
:100890004FEA022245EA111545EA10654FEA0026A3
:1008A0000EF000419D4208BF964244F1FD0404F55C
:1008B000407402D25B084FEA3202B61A65EB0305B8
:1008C0005B084FEA32024FF480104FF4002CB6EB75
:1008D000020E75EB030E22BFB61A754640EA0C00F5
:1008E0005B084FEA3202B6EB020E75EB030E22BF35
:1008F000B61A754640EA5C005B084FEA3202B6EB76
:10090000020E75EB030E22BFB61A754640EA9C0034
:100910005B084FEA3202B6EB020E75EB030E22BF04
:10092000B61A754640EADC0055EA060E18D04FEAC2
:10093000051545EA16754FEA06164FEAC30343EA62
:1009400052734FEAC2025FEA1C1CC0D111F4801F2F
:100950000BD141EA00014FF000004FF0004CB6E728
:1009600011F4801F04BF01430020B4F1FD0C88BFC7
:10097000BCF5E06F3FF6AFAEB5EB030C04BFB6EBD2
:10098000020C5FEA500C50F1000041EB045170BDC5
:100990000EF0004E4EEA113114EB5C04C2BFD4EBF2
:1009A0000C0541EA045170BD41F480114FF0000E76
:1009B000013C90E645EA060E8DE60CEA135594EAF2
:1009C0000C0F08BF95EA0C0F3FF43BAF94EA0C0FF5
:1009D0000AD150EA01347FF434AF95EA0C0F7FF46A
:1009E00025AF104619462CE795EA0C0F06D152EABE
:1009F00003353FF4FDAE1046194622E750EA4106A2
:100A000018BF52EA43067FF4C5AE50EA41047FF4B2
:100A10000DAF52EA43057FF4EBAE12E74FF0FF3C17
:100A200006E000BF4FF0010C02E000BF4FF0010CE8
:100A30004DF804CD4FEA410C7FEA6C5C4FEA430C61
:100A400018BF7FEA6C5C1BD001B050EA410C0CBFB0
:100A500052EA430C91EA030F02BF90EA020F002012
:100A6000704710F1000F91EA030F58BF994208BF79
:100A700090422CBFD8176FEAE37040F00100704736
:100A80004FEA410C7FEA6C5C02D150EA013C07D18D
:100A90004FEA430C7FEA6C5CD6D152EA033CD3D0D8
:100AA0005DF8040B704700BF8446104662468C46D2
:100AB0001946634600E000BF01B5FFF7B7FF002805
:100AC00048BF10F1000F01BD4DF808EDFFF7F4FF2E
:100AD0000CBF012000205DF808FB00BF4DF808EDB9
:100AE000FFF7EAFF34BF012000205DF808FB00BFDC
:100AF0004DF808EDFFF7E0FF94BF012000205DF8FE
:100B000008FB00BF4DF808EDFFF7CEFF94BF0120B2
:100B100000205DF808FB00BF4DF808EDFFF7C4FFAB
:100B200034BF012000205DF808FB00BF4FEA410CF4
:100B30007FEA6C5C02D150EA013C0AD14FEA430CD7
:100B40007FEA6C5C02D152EA033C02D14FF0000014
:100B500070474FF0010070474FEA410212F5001252
:100B600015D211D56FF47873B3EB625212D94FEAF4
:100B7000C12343F0004343EA505311F0004F23FADE
:100B800002F018BF404270474FF00000704750EA33
:100B9000013005D111F0004008BF6FF000407047F0
:100BA0004FF00000704700BF4A0011D212F500124A
:100BB00011D20DD56FF47873B3EB62520ED44FEAB5
:100BC000C12343F0004343EA505323FA02F0704735
:100BD0004FF00000704750EA013002D14FF0FF3073
:100BE00070474FF0000070474FEA4102B2F1E04316
:100BF00024BFB3F5001CDCF1FE5C0DD901F0004C04
:100C00004FEAC0024CEA5070B2F1004F40EB830053
:100C100008BF20F00100704711F0804F21D113F17F
:100C20003872BCBF01F00040704741F480114FEAB8
:100C30005252C2F11802C2F1200C10FA0CF320FA41
:100C400002F018BF40F001004FEAC1234FEAD3235E
:100C500003FA0CFC40EA0C0023FA02F34FEA4303C8
:100C6000CCE77FEA625307D150EA01331EBF4FF051
:100C7000FE4040F44000704701F0004040F0FE406C
:100C800040F40000704700BF53B94AB9002908BFBB
:100C900000281CBF4FF0FF314FF0FF3000F0AAB921
:100CA000ADF1080C6DE904CE00F03CF8DDF804E08D
:100CB000DDE9022304B0704738B500220023044662
:100CC0000D46FFF70BFF28B920462946BDE83840FE
:100CD00000F00AB8204605F1004100F005F8404256
:100CE00061EB410138BD00BFD0B50C4B0022064678
:100CF0000F46FFF781FCFFF757FF0446FFF702FCA2
:100D0000074B0022FFF778FC02460B463046394677
:100D1000FFF7BAFAFFF748FF2146D0BD0000F03DCB
:100D20000000F0412DE9F047089D04468E46002B57
:100D30004DD18A42944669D9B2FA82F252B101FA8F
:100D400002F3C2F1200120FA01F10CFA02FC41EA9F
:100D5000030E94404FEA1C48210CBEFBF8F61FFA24
:100D60008CF708FB16E341EA034306FB07F19942BF
:100D70000AD91CEB030306F1FF3080F01F81994272
:100D800040F21C81023E63445B1AA4B2B3FBF8F04C
:100D900008FB103344EA034400FB07F7A7420AD9D3
:100DA0001CEB040400F1FF3380F00A81A74240F2FB
:100DB00007816444023840EA0640E41B00261DB166
:100DC000D4400023C5E900433146BDE8F0878B429B
:100DD00009D9002D00F0EF800026C5E9000130465A
:100DE0003146BDE8F087B3FA83F6002E4AD18B4234
:100DF00002D3824200F2F980841A61EB03030120DE
:100E00009E46002DE0D0C5E9004EDDE702B9FFDEC9
:100E1000B2FA82F2002A40F09280A1EB0C014FEA74
:100E20001C471FFA8CFE0126200CB1FBF7F307FBD1
:100E3000131140EA01410EFB03F0884208D91CEB74
:100E4000010103F1FF3802D2884200F2CB80434611
:100E5000091AA4B2B1FBF7F007FB101144EA0144F0
:100E60000EFB00FEA64508D91CEB040400F1FF317F
:100E700002D2A64500F2BB800846A4EB0E0440EA6D
:100E800003409CE7C6F12007B34022FA07FC4CEA76
:100E9000030C20FA07F401FA06F31C43F9404FEA69
:100EA0001C4900FA06F3B1FBF9F8200C1FFA8CFE7E
:100EB00009FB181140EA014108FB0EF0884202FAD2
:100EC00006F20BD91CEB010108F1FF3A80F0888093
:100ED000884240F28580A8F102086144091AA4B250
:100EE000B1FBF9F009FB101144EA014100FB0EFED1
:100EF0008E4508D91CEB010100F1FF346CD28E4500
:100F00006AD90238614440EA0840A0FB0294A1EB90
:100F10000E01A142C846A64656D353D05DB1B3EBED
:100F2000080261EB0E0101FA07F722FA06F3F1401D
:100F30001F43C5E9007100263146BDE8F087C2F1C4
:100F40002003D8400CFA02FC21FA03F3914001433C
:100F50004FEA1C471FFA8CFEB3FBF7F007FB103675
:100F60000B0C43EA064300FB0EF69E4204FA02F421
:100F700008D91CEB030300F1FF382FD29E422DD974
:100F8000023863449B1B89B2B3FBF7F607FB1633A9
:100F900041EA034106FB0EF38B4208D91CEB010129
:100FA00006F1FF3816D28B4214D9023E6144C91AA9
:100FB00046EA004638E72E46284605E70646E3E6B9
:100FC0001846F8E64B45A9D2B9EB020864EB0C0EC3
:100FD0000138A3E74646EAE7204694E74046D1E7D2
:100FE000D0467BE7023B614432E7304609E7644480
:100FF000023842E7704700BF80B483B000AF0023DF
:10100000FB8002E0FB880133FB80FB88B3F57A6F3D
:10101000F8D900BF00BF0C37BD465DF8047B7047B0
:1010200080B582B000AF0346FB71FB79DB09DBB210
:1010300003F00103002B06D001224FF40051454874
:1010400003F078FB05E000224FF40051414803F023
:1010500071FBFB799B09DBB203F00103002B05D088
:10106000012240213C4803F065FB04E000224021BE
:10107000394803F05FFBFB795B09DBB203F0010346
:10108000002B05D001222021334803F053FB04E05C
:1010900000222021304803F04DFBFB791B09DBB215
:1010A00003F00103002B05D0012210212A4803F090
:1010B00041FB04E000221021274803F03BFBFB79B1
:1010C000DB08DBB203F00103002B05D0012208216D
:1010D000214803F02FFB04E0002208211E4803F002
:1010E00029FBFB799B08DBB203F00103002B05D041
:1010F00001220421184803F01DFB04E00022042112
:10110000154803F017FBFB795B08DBB203F0010322
:10111000002B05D0012202210F4803F00BFB04E055
:10112000002202210C4803F005FBFB7903F00103C8
:10113000002B05D001220121074803F0FBFA04E04F
:1011400000220121044803F0F5FA00BF0837BD462C
:1011500080BD00BF000802400010024080B582B090
:1011600000AF0346FB71012220210C4803F0E2FA94
:1011700001224FF40071094803F0DCFAFB791846AC
:10118000FFF74EFFFFF738FF00224FF400710348CE
:1011900003F0D0FA00BF0837BD4680BD000402400E
:1011A00080B582B000AF0346FB71002220210C48BD
:1011B00003F0C0FA01224FF40071094803F0BAFAB3
:1011C000FB791846FFF72CFFFFF716FF00224FF4BC
:1011D0000071034803F0AEFA00BF0837BD4680BD7A
:1011E0000004024080B500AF282002F001F9302051
:1011F000FFF7D6FF012002F0FBF83020FFF7D0FF09
:10120000012002F0F5F83020FFF7CAFF012002F0BC
:10121000EFF83820FFF7C4FF012002F0E9F80820BA
:10122000FFF7BEFF012002F0E3F80120FFF7B8FF4F
:10123000022002F0DDF80620FFF7B2FF012002F0E5
:10124000D7F80F20FFF7ACFF3A20FFF7A9FF0220E5
:1012500002F0CEF800BF80BD80B582B000AF03467B
:101260000A46FB711346BB71BB79032B42D801A21E
:1012700052F823F0851200089B120008B9120008EA
:10128000D7120008FB7963F07F03DBB21846FFF743
:1012900087FF012002F0ACF82CE0FB794033DBB291
:1012A0005BB263F07F035BB2DBB21846FFF778FFF7
:1012B000012002F09DF81DE0FB791433DBB25BB234
:1012C00063F07F035BB2DBB21846FFF769FF0120D2
:1012D00002F08EF80EE0FB795433DBB25BB263F0C0
:1012E0007F035BB2DBB21846FFF75AFF012002F022
:1012F0007FF800BF00BF0837BD4680BD80B584B011
:1013000000AF78600023FB7309E0FB7B7A6813442D
:101310001B781846FFF722FFFB7B0133FB73FB7B37
:101320007A6813441B78002BEFD100BF00BF103741
:10133000BD4680BD80B500AF0120FFF731FF00BF83
:1013400080BD000080B500AF00224FF480510B48F3
:1013500003F0F0F900224FF40051084803F0EAF9D5
:1013600000224FF48041054803F0E4F900224FF4D5
:101370000041024803F0DEF900BF80BD00040240D6
:1013800080B500AF00224FF480510B4803F0D2F932
:1013900000224FF40051084803F0CCF900224FF42A
:1013A0008041054803F0C6F901224FF4004102488C
:1013B00003F0C0F900BF80BD0004024080B500AF5B
:1013C00000224FF480510B4803F0B4F900224FF48F
:1013D0000051084803F0AEF901224FF4804105485E
:1013E00003F0A8F900224FF40041024803F0A2F9EB
:1013F00000BF80BD0004024080B500AF00224FF462
:1014000080510B4803F096F901224FF4005108482F
:1014100003F090F900224FF48041054803F08AF967
:1014200000224FF40041024803F084F900BF80BD60
:101430000004024080B500AF01224FF480510B48F8
:1014400003F078F900224FF40051084803F072F9D4
:1014500000224FF48041054803F06CF900224FF45C
:101460000041024803F066F900BF80BD000402405D
:1014700080B500AFFFF766FFFFF7B4FEC82001F0AC
:10148000B7FF00210020FFF7E7FE174917480BF0D0
:10149000EDFA1648FFF732FF01210020FFF7DCFECE
:1014A000134912480BF0E2FA1048FFF727FF022118
:1014B0000020FFF7D1FE0F490C480BF0D7FA0B487C
:1014C000FFF71CFF03210020FFF7C6FE0A4907486B
:1014D0000BF0CCFA0548FFF711FF4FF47A7001F0DA
:1014E00087FF00BF80BD00BF680601081004002010
:1014F0007C0601088C060108A00601080000000017
:1015000080B500AF6C4801F0DBFF64216A4802F04F
:10151000DCF8694802F074FA0346684A13606648CA
:1015200002F0A0F8654B1B6807EE903AF8EE677A78
:1015300017EE900AFFF708F855A3D3E90023FFF749
:101540005BF802460B46104619464FF000025C4B12
:10155000FFF77CF902460B4610461946FFF744FB9D
:101560000346584A1360574B1B681846FEF7ECFFBA
:1015700049A3D3E90023FFF7CFFA0346002B10D08D
:10158000504B1B681846FEF7DFFF45A3D3E9002345
:10159000FFF7A4FA0346002B03D04B4B46221A60F8
:1015A00072E0484B1B681846FEF7CEFF3CA3D3E918
:1015B0000023FFF7B1FA0346002B10D0414B1B6804
:1015C0001846FEF7C1FF38A3D3E90023FFF786FAD8
:1015D0000346002B03D03C4B20221A6054E0394BC9
:1015E0001B681846FEF7B0FF2FA3D3E90023FFF7CF
:1015F00093FA0346002B0DD0324BD3ED007AB7EEB1
:10160000007AF4EEC77AF1EE10FA03D52E4B1422CD
:101610001A6039E02B4BD3ED007AB7EE007AF4EE86
:10162000C77AF1EE10FA10DD264B1B681846FEF75C
:101630008BFF1FA3D3E90023FFF750FA0346002BCB
:1016400003D0214B0D221A601EE01E4B1B6818466A
:10165000FEF77AFF10A3D3E90023FFF749FA034608
:10166000002B0DD1174B1B681846FEF76DFF10A31A
:10167000D3E90023FFF746FA0346002B00D103E02D
:10168000114B00221A60FFE700BF80BDAFF300805E
:101690006666666666660A40EC51B81E85EBB13F29
:1016A000E17A14AE47E1CA3F85EB51B81E85DB3FB6
:1016B000F6285C8FC2F5FC3F8003002074040020F4
:1016C0000000B040780400207C04002000000000EE
:1016D00080B582B000AF03213B4802F0BDF9002382
:1016E0007B6014E0384801F0EBFE6421364801F0DD
:1016F000ECFF354802F084F9024634497B6841F832
:101700002320314801F0AEFF7B6801337B604FF44A
:10171000FA727B689342E5D304212D4802F09CF9CC
:101720002C4B4FF000021A6000233B601DE0274A5B
:101730003B6852F8233007EE903AB8EE677A254BB3
:10174000D3ED007AB4EEE77AF1EE10FA0ADD1F4A23
:101750003B6852F8233007EE903AF8EE677A1D4B5B
:10176000C3ED007A3B6801333B604FF4FA723B688B
:101770009342DCD3174B1B681846FEF7E5FE0EA319
:10178000D3E90023FEF738FF02460B461046194600
:101790000BA3D3E90023FEF779FD02460B46104662
:1017A0001946FFF721FA03460A4A136000BF0837BB
:1017B000BD4680BDAFF300809E42AED4B320743FDF
:1017C000333333333333C33F3803002080040020E6
:1017D000F0020020500C002080B586B000AF002140
:1017E0005F4805F0EDF904215D4805F05FF83B46E0
:1017F00000221A605A609A60DA6004233B60012379
:101800007B600023BB603B461946564802F024F932
:101810000346002B01D001F08BFA0421514802F05D
:101820001BF900237B6114E04E4801F049FE64215E
:101830004C4801F04AFF4B4802F0E2F802464A49A0
:101840007B6941F82320474801F00CFF7B69013395
:101850007B614FF4FA627B699342E5D3434B0022EC
:101860001A6000233B6110E03F4A3B6952F8232095
:101870003E4B1B689A4205D93B4A3B6952F82330DC
:101880003A4A13603B6901333B614FF4FA623B69AA
:101890009342E9D3354B1B6807EE903AF8EE677A2E
:1018A00017EE900AFEF750FE25A3D3E90023FEF7BA
:1018B000A3FE02460B46104619464FF000022C4B81
:1018C000FEF7C4FF02460B46104619461EA3D3E995
:1018D0000023FEF7D9FC02460B46104619461CA30E
:1018E000D3E90023FEF788FE02460B461046194650
:1018F00019A3D3E90023FEF7A9FF02460B461046C1
:101900001946FFF771F903461A4A1360194BD3EDD4
:10191000007AB2EE087AF4EEC77AF1EE10FA03D547
:10192000144B4FF000021A6000210D4805F020F81A
:1019300004210B4804F0DEFE00BF1837BD4680BD11
:101940006666666666660A408EE9094B3CA0F33F10
:10195000EC51B81E853B9540CD3B7F669EA0F63F7F
:10196000C8030020F0020020540C0020146A00205C
:101970000000B040206A002080B586B000AF002192
:10198000634805F01DF90421614804F08FFF3B46D0
:1019900000221A605A609A60DA6005233B600123D6
:1019A0007B600023BB603B4619465A4802F054F85E
:1019B0000346002B01D001F0BBF900237B6114E04A
:1019C000544801F07DFD6421524801F07EFE5148EB
:1019D00002F016F8024650497B6941F823204D4831
:1019E00001F040FE7B6901337B614FF4FA627B6951
:1019F0009342E5D3494B00221A6000233B611BE070
:101A0000454A3B6952F8233007EE903AB8EE677AC0
:101A1000424B1B6807EE903AF8EE677AB4EEE77A2D
:101A2000F1EE10FA05DD3C4A3B6952F823303B4A9F
:101A300013603B6901333B614FF4FA623B699342A7
:101A4000DED3364B1B6807EE903AF8EE677A17EE56
:101A5000900AFEF779FD26A3D3E90023FEF7CCFD1B
:101A600002460B46104619464FF000022C4BFEF77B
:101A7000EDFE02460B46104619461FA3D3E900238C
:101A8000FEF702FC02460B46104619461CA3D3E99A
:101A90000023FEF7B1FD02460B46104619461AA375
:101AA000D3E90023FEF7D2FE02460B461046194644
:101AB000FFF79AF803461B4A13601A4BD3ED007ADE
:101AC000B2EE087AF4EEC77AF1EE10FA03D5154BB0
:101AD0004FF000021A6000210D4804F049FF042174
:101AE0000B4804F007FE00BF1837BD4680BD00BF9D
:101AF0006666666666660A408EE9094B3CA0F33F5F
:101B0000EC51B81E853B9540CD3B7F669EA0F63FCD
:101B1000C8030020F0020020942B0020186A002047
:101B20000000B040246A002080B586B000AF0021DC
:101B3000634805F045F80421614804F0B7FE3B46D0
:101B400000221A605A609A60DA6006233B60012323
:101B50007B600023BB603B4619465A4801F07CFF7E
:101B60000346002B01D001F0E3F800237B6114E071
:101B7000544801F0A5FC6421524801F0A6FD5148EB
:101B800001F03EFF024650497B6941F823204D4851
:101B900001F068FD7B6901337B614FF4FA627B6978
:101BA0009342E5D3494B00221A6000233B611BE0BE
:101BB000454A3B6952F8233007EE903AB8EE677A0F
:101BC000424B1B6807EE903AF8EE677AB4EEE77A7C
:101BD000F1EE10FA05DD3C4A3B6952F823303B4AEE
:101BE00013603B6901333B614FF4FA623B699342F6
:101BF000DED3364B1B6807EE903AF8EE677A17EEA5
:101C0000900AFEF7A1FC26A3D3E90023FEF7F4FC1B
:101C100002460B46104619464FF000022C4BFEF7C9
:101C200015FE02460B46104619461FA3D3E90023B2
:101C3000FEF72AFB02460B46104619461CA3D3E9C1
:101C40000023FEF7D9FC02460B46104619461AA39C
:101C5000D3E90023FEF7FAFD02460B46104619466B
:101C6000FEF7C2FF03461B4A13601A4BD3ED007AFE
:101C7000B2EE087AF4EEC77AF1EE10FA03D5154BFE
:101C80004FF000021A6000210D4804F071FE04219B
:101C90000B4804F02FFD00BF1837BD4680BD00BFC4
:101CA0006666666666660A408EE9094B3CA0F33FAD
:101CB000EC51B81E853B9540CD3B7F669EA0F63F1C
:101CC000C8030020F0020020D44A00201C6A002033
:101CD0000000B040286A0020B0B582B000AF786044
:101CE0007B681B7F012B4CD10021786805F0C4FA7A
:101CF0000346264A1360254B1B68002B41D0042164
:101D0000786805F0B9FA07EE900AF8EE677A17EEF0
:101D1000900AFEF719FC4FF000021D4BFEF76CFC19
:101D200002460B4614461D46184B1B6807EE903AB8
:101D3000F8EE677A17EE900AFEF706FC02460B46AD
:101D400020462946FEF782FD02460B464FF0000072
:101D50000F49FEF799FA02460B4610461946FEF760
:101D600043FF03460B4A1360084B1B6807EE903A8B
:101D7000B8EE677ADFED086AC6EE877A074BC3EDE7
:101D8000007A00BF0837BD46B0BD00BF2C6A0020F6
:101D900000005940306A0020A037A04C346A00206F
:101DA00080B582B000AF0346FB80FB88082B16D1BC
:101DB000614B1B78022B0ED0022B12DC002B02D0C1
:101DC000012B04D00DE05C4B01221A700AE05A4B43
:101DD00002221A7006E0584B00221A7002E000BF7F
:101DE00000E000BFFB88402B16D1534B1B78022B21
:101DF0000ED0022B12DC002B02D0012B04D00DE000
:101E00004D4B02221A700AE04B4B00221A7006E07A
:101E1000494B01221A7002E000BF00E000BFFB88BE
:101E2000202B25D1454B1B78042B23D801A252F837
:101E300023F000BF491E0008511E0008591E00086B
:101E4000611E0008691E00083C4B01221A7012E056
:101E50003A4B02221A700EE0384B03221A700AE045
:101E6000364B04221A7006E0344B00221A7002E04E
:101E700000BF00E000BFFB88102B25D12F4B1B7843
:101E8000042B23D801A252F823F000BFA11E0008A2
:101E9000A91E0008B11E0008B91E0008C11E0008D6
:101EA000264B04221A7012E0244B00221A700EE016
:101EB000224B01221A700AE0204B02221A7006E01F
:101EC0001E4B03221A7002E000BF00E000BF1B4B54
:101ED0001B78042B2AD801A252F823F0F11E000827
:101EE000FD1E0008091F0008151F0008211F00081B
:101EF000134B41221A70FFF725FA18E0104B4222CB
:101F00001A70FFF73DFA12E00D4B43221A70FFF7EB
:101F100055FA0CE00A4B44221A70FFF76DFA06E0FE
:101F2000074B45221A70FFF785FA00E000BF00BF9B
:101F30000837BD4680BD00BF386A0020396A0020DE
:101F4000000000200000000080B500AF724BD3ED10
:101F5000007AB0EE087AF4EEC77AF1EE10FA03D503
:101F60006E4B00221A60D0E06B4BD3ED007AB0EEDE
:101F7000087AF4EEC77AF1EE10FA0EDB664BD3ED79
:101F8000007AB1EE0C7AF4EEC77AF1EE10FA04D5CD
:101F9000624B40F2E7321A60B7E05F4BD3ED007A54
:101FA000B1EE0C7AF4EEC77AF1EE10FA0DDB5A4B73
:101FB000D3ED007AB2EE007AF4EEC77AF1EE10FAC1
:101FC00003D5564B00221A609FE0534BD3ED007AA5
:101FD000B2EE007AF4EEC77AF1EE10FA0DDB4E4B5A
:101FE000D3ED007AB2EE047AF4EEC77AF1EE10FA8D
:101FF00003D54A4B06221A6087E0474BD3ED007A9F
:10200000B2EE047AF4EEC77AF1EE10FA1DDB424B21
:10201000D3ED007A9FED427AF4EEC77AF1EE10FA32
:1020200013D53D4B1B681846FEF78EFA38A3D3E94B
:102030000023FEF7E1FA02460B4610461946FEF76A
:10204000B3FD0346354A13605FE0334BD3ED007AAE
:102050009FED337AF4EEC77AF1EE10FA23DB2E4BC4
:10206000D3ED007A9FED2F7AF4EEC77AF1EE10FAF5
:1020700019D5294BD3ED007A9FED2B7A77EEC77AED
:1020800017EE900AFEF760FA4FF00002274BFEF7BA
:10209000B3FA02460B4610461946FEF785FD034685
:1020A0001E4A136031E01C4BD3ED007A9FED1D7A80
:1020B000F4EEC77AF1EE10FA0DDB174BD3ED007A90
:1020C0009FED1B7AF4EEC77AF1EE10FA03D5134BAD
:1020D00050221A6019E0104BD3ED007A9FED147A6C
:1020E000F4EEC77AF1EE10FA00DA0EE00A4BD3ED07
:1020F000007A9FED107AF4EEC77AF1EE10FA00D470
:1021000003E0064B00221A60FFE700BF80BD00BF5E
:10211000333333333333E33F306A00203C6A0020EB
:102120000000AA420000C0420000804200000440BB
:102130000000C2420000C84280B500AF694B1B7866
:10214000002B40F0FA80684B4FF000021A60674B9A
:102150004FF000021A60FFF7D3F9FFF7B9FAFFF763
:102160003BFBFFF709FCFFF7DFFCFFF7EDFEFFF796
:10217000E1F800210020FFF76FF85D4B1B781A464D
:102180005C495D480AF072FC5B48FFF7B7F8012133
:102190000020FFF761F8594B1B68002B07D0574B05
:1021A0001B681A46564954480AF060FC06E0534B37
:1021B0001B681A46534950480AF058FC4E48FFF72E
:1021C0009DF802210020FFF747F84F4B1B68002BBA
:1021D0000FD14A4B1B68002B0BD1444B1B68184690
:1021E000FEF7B2F902460B46484943480AF03EFC66
:1021F00011E0454B1B6840F2E732934204D1444959
:102200003D480AF033FC06E03F4B1B681A46414943
:1022100039480AF02BFC3848FFF770F803210020FA
:10222000FFF71AF83C4BD3ED007A9FED3C7A37EE7E
:10223000C77A3B4BD3ED007AB4EEE77AF1EE10FAB1
:1022400074D5354BD3ED007A9FED347A37EE877A2B
:10225000334BD3ED007AB4EEE77AF1EE10FA65DD98
:10226000304BD3ED007A9FED2D7A37EEC77A2C4BA9
:10227000D3ED007AB4EEE77AF1EE10FA56D5294B99
:10228000D3ED007A9FED257A37EE877A244BD3ED94
:10229000007AB4EEE77AF1EE10FA47DD214BD3ED88
:1022A000007A9FED1E7A37EEC77A1B4BD3ED007A8A
:1022B000B4EEE77AF1EE10FA38D51A4BD3ED007A86
:1022C0009FED167A37EE877A134BD3ED007AB4EE92
:1022D000E77AF1EE10FA29DD134907480AF0C6FB48
:1022E00028E000BF386A0020346A0020306A0020ED
:1022F00000000020AC060108100400207C0400202F
:10230000BC060108D00601083C6A0020E40601086A
:10231000F80601080C070108246A0020000030427A
:10232000206A0020286A00201C07010857495848E5
:102330000AF09CFB5648FEF7E1FF564B1B78012B39
:102340004FD1554B4FF000021A60544B4FF0000232
:102350001A60FFF7BDF9FEF7EDFF00210020FEF740
:102360007BFF4F4B1B781A464E4949480AF07EFBCB
:102370004748FEF7C3FF01210020FEF76DFF464BE3
:102380001B681846FEF7E0F802460B4646494048EF
:102390000AF06CFB3E48FEF7B1FF02210020FEF779
:1023A0005BFF3E4B1B681846FEF7CEF802460B4615
:1023B0003E4937480AF05AFB3548FEF79FFF032194
:1023C0000020FEF749FF3A4B1B681846FEF7BCF8A1
:1023D00002460B4637492E480AF048FB2C48FEF7C8
:1023E0008DFF2C4B1B78022B4ED1FFF7F5F9FFF731
:1023F000C3FAFFF799FB642000F0FAFFFEF79AFF9B
:1024000000210020FEF728FF254B1B781A462A4999
:102410001F480AF02BFB1E48FEF770FF0121002029
:10242000FEF71AFF254B1B681846FEF78DF802468B
:102430000B46234916480AF019FB1548FEF75EFFC4
:1024400002210020FEF708FF1E4B1B681846FEF70E
:102450007BF802460B461C490D480AF007FB0C4866
:10246000FEF74CFF03210020FEF7F6FE174B1B681A
:102470001846FEF769F802460B46154904480AF06B
:10248000F5FA0348FEF73AFF00BF80BD30070108A8
:1024900010040020386A0020346A0020306A0020CE
:1024A00000000020AC060108440701085407010899
:1024B000500C00206807010878070108206A0020F6
:1024C00084070108246A002098070108286A002070
:1024D000AC070108000000002DE9B04386B004AF4E
:1024E00000F014FF00F0FEF800F0F8FA00F064F9D4
:1024F00000F058FA08F0EEFE00F002FA00F0AEF933
:1025000000216F4804F034FA04216D4804F0F2F819
:10251000FEF7AEFFFFF710FEC82000F069FF694923
:1025200069480AF0A3FA6848FDF752FE03461946C7
:10253000654808F08DFF0023FB80A2E0FB88634A1A
:1025400052F8233007EE903AF8EE677A17EE900AC9
:10255000FDF7FAFF54A3D3E90023FEF74DF8024636
:102560000B46104619464FF00002594BFEF76EF924
:1025700002460B46104619464DA3D3E90023FDF74A
:1025800083FE02460B46104619464BA3D3E90023AF
:10259000FEF732F802460B4690469946FB884D4AB4
:1025A00052F8233007EE903AF8EE677A17EE900A69
:1025B000FDF7CAFF3CA3D3E90023FEF71DF802464E
:1025C0000B46104619464FF00002414BFEF73EF90C
:1025D00002460B461046194635A3D3E90023FDF702
:1025E00053FE02460B461046194633A3D3E9002397
:1025F000FEF702F802460B4614461D46FB88364A93
:1026000052F8233007EE903AF8EE677A17EE900A08
:10261000FDF79AFF24A3D3E90023FDF7EDFF02465F
:102620000B46104619464FF00002294BFEF70EF9F3
:1026300002460B46104619461DA3D3E90023FDF7B9
:1026400023FE02460B46104619461BA3D3E900237E
:10265000FDF7D2FF02460B46CDE90223CDE9004546
:1026600042464B461D4918480AF000FA1648FDF745
:10267000AFFD03461946144808F0EAFEFB88013313
:10268000FB80FB884FF4FA629342FFF457AF144982
:102690000D480AF0EBF90C48FDF79AFD0346194680
:1026A000094808F0D5FE35E76666666666660A4044
:1026B0008EE9094B3CA0F33FEC51B81E853B954099
:1026C000C8030020C007010810040020540C00209B
:1026D0000000B040942B0020D44A0020EC070108F1
:1026E0000408010880B594B000AF07F12003302240
:1026F0000021184609F032FB07F10C0300221A6092
:102700005A609A60DA601A610023BB60284B1B6C28
:10271000274A43F080531364254B1B6C03F080530E
:10272000BB60BB6800237B60224B1B68214A43F4DB
:10273000804313601F4B1B6803F480437B607B68FE
:1027400001233B624FF480337B620223BB634FF46F
:102750008003FB6308233B64A8237B640223BB64E0
:102760000723FB6407F12003184603F0ADFA034684
:10277000002B01D000F0DCFA0F23FB6002233B6149
:1027800000237B614FF4A053BB614FF48053FB6186
:1027900007F10C030521184603F00EFD0346002B3C
:1027A00001D000F0C5FA00BF5037BD4680BD00BF64
:1027B000003802400070004080B584B000AF3B4656
:1027C00000221A605A609A60DA60214B214A1A602E
:1027D0001F4B4FF480325A601D4B00229A601C4BF5
:1027E00000221A611A4B00221A76194B002283F834
:1027F0002020174B0022DA62154B174A9A62144BBD
:102800000022DA60124B0122DA61114B002283F8B8
:1028100030200F4B01225A610D4800F00DFE034697
:10282000002B01D000F084FA04233B6001237B607D
:102830000023BB603B461946054801F00DF90346ED
:10284000002B01D000F074FA00BF1037BD4680BDE8
:10285000F0020020002001400100000F80B584B08C
:1028600000AF3B4600221A605A609A60DA60214B42
:10287000214A1A601F4B4FF480325A601D4B0022D0
:102880009A601C4B00221A611A4B00221A76194BCF
:10289000002283F82020174B0022DA62154B174ADA
:1028A0009A62144B0022DA60124B0122DA61114B5A
:1028B000002283F830200F4B01225A610D4800F0AE
:1028C000BBFD0346002B01D000F032FA03233B602E
:1028D00001237B600023BB603B461946054801F09D
:1028E000BBF80346002B01D000F022FA00BF1037DE
:1028F000BD4680BD38030020002101400100000FCB
:1029000080B584B000AF3B4600221A605A609A60DE
:10291000DA60214B214A1A601F4B4FF480325A6013
:102920001D4B00229A601C4B00221A611A4B002298
:102930001A76194B002283F82020174B0022DA6206
:10294000154B174A9A62144B0022DA60124B01228F
:10295000DA61114B002283F830200F4B01225A61BB
:102960000D4800F069FD0346002B01D000F0E0F9AE
:1029700001233B6001237B600023BB603B4619467B
:10298000054801F069F80346002B01D000F0D0F9AA
:1029900000BF1037BD4680BD8003002000220140EB
:1029A0000100000F80B590B000AF07F130030022A6
:1029B0001A605A609A60DA6007F11C0300221A60FC
:1029C0005A609A60DA601A6107F10C0300221A60FB
:1029D0005A609A60DA603B1D00221A605A603E4BD2
:1029E0004FF080421A603C4B00225A603A4B002262
:1029F0009A60394B4FF0FF32DA60374B00221A6190
:102A0000354B00229A61344803F0CCFD0346002B7D
:102A100001D000F08DF94FF480533B6307F1300390
:102A200019462D4804F01EFB0346002B01D000F090
:102A30007FF9294803F005FE0346002B01D000F082
:102A400077F90423FB6150233B6200237B62002360
:102A5000BB620023FB6207F11C0319461E4804F009
:102A6000C8FB0346002B01D000F062F90023FB6095
:102A700001233B6100237B610023BB6107F10C0351
:102A800000221946144804F051FA0346002B01D0E5
:102A900000F04EF90223FB6002233B6107F10C03B7
:102AA000042219460C4804F041FA0346002B01D0D9
:102AB00000F03EF900237B600023BB603B1D1946FC
:102AC000054804F061FF0346002B01D000F030F907
:102AD00000BF4037BD4680BDC803002080B58CB024
:102AE00000AF07F11C0300221A605A609A60DA6096
:102AF0001A610023BB61884B1B6B874A43F01003AC
:102B00001363854B1B6B03F01003BB61BB69002390
:102B10007B61814B1B6B804A43F0040313637E4B44
:102B20001B6B03F004037B617B6900233B617A4BE1
:102B30001B6B794A43F080031363774B1B6B03F0E5
:102B400080033B613B690023FB60734B1B6B724A44
:102B500043F001031363704B1B6B03F00103FB6035
:102B6000FB680023BB606C4B1B6B6B4A43F002039A
:102B70001363694B1B6B03F00203BB60BB6800234C
:102B80007B60654B1B6B644A43F008031363624B25
:102B90001B6B03F008037B607B68002245F27F31EA
:102BA0005E4801F0C7FD00224FF400515C4801F07F
:102BB000C1FD01224FF470415A4801F0BBFD0122D2
:102BC0004FF4F841584801F0B5FD00224FF4487128
:102BD000544801F0AFFD41F27F33FB6101233B62BA
:102BE00002237B620023BB6207F11C0319464B489A
:102BF00001F004FC4FF40053FB6101233B6202230C
:102C00007B620023BB6207F11C031946444801F0B4
:102C1000F5FB0423FB614FF404133B6200237B624A
:102C200007F11C031946414801F0E8FB4FF48043CB
:102C3000FB6101233B6201237B620123BB6207F13D
:102C40001C031946354801F0D9FB4FF47043FB6172
:102C500001233B6200237B620223BB6207F11C035A
:102C60001946304801F0CAFB4FF4F843FB611123C9
:102C70003B6200237B620223BB6207F11C031946FF
:102C8000294801F0BBFBFA23FB614FF404133B62BC
:102C900001237B6207F11C031946234801F0AEFBB8
:102CA0004FF44873FB6101233B6202237B620023E4
:102CB000BB6207F11C0319461A4801F09FFB002272
:102CC0000021072001F0CBF9072001F0E4F90022F0
:102CD0000021082001F0C3F9082001F0DCF90022EE
:102CE0000021092001F0BBF9092001F0D4F90022EC
:102CF00000210A2001F0B3F90A2001F0CCF90022EA
:102D00000021172001F0ABF9172001F0C4F900BF32
:102D10003037BD4680BD00BF003802400010024081
:102D20000008024000040240000C02400000024083
:102D300080B400AF72B600BFFEE7000080B582B07D
:102D400000AF00237B601F4B5B6C1E4A43F4804343
:102D500053641C4B5B6C03F480437B607B680023F3
:102D60003B60184B1B6C174A43F080531364154BA0
:102D70001B6C03F080533B603B6800220021012064
:102D800001F06DF9012001F086F9002200210420F4
:102D900001F065F9042001F07EF9002200210520F0
:102DA00001F05DF9052001F076F9002200215120A3
:102DB00001F055F9512001F06EF900BF0837BD460A
:102DC00080BD00BF0038024080B58EB000AF786093
:102DD00007F1240300221A605A609A60DA601A61CF
:102DE0007B681B68514A934230D100233B62504BB1
:102DF0005B6C4F4A43F4807353644D4B5B6C03F43C
:102E000080733B623B6A0023FB61494B1B6B484A62
:102E100043F001031363464B1B6B03F00103FB619B
:102E2000FB6970237B620323BB620023FB6207F113
:102E3000240319463F4801F0E1FA00220021122044
:102E400001F00DF9122001F026F96AE07B681B6899
:102E5000394A934230D10023BB61354B5B6C344A15
:102E600043F400735364324B5B6C03F40073BB6137
:102E7000BB6900237B612E4B1B6B2D4A43F0010382
:102E800013632B4B1B6B03F001037B617B690823EE
:102E90007B620323BB620023FB6207F12403194614
:102EA000244801F0ABFA00220021122001F0D7F8EB
:102EB000122001F0F0F834E07B681B681F4A93424F
:102EC0002FD100233B611A4B5B6C194A43F480639A
:102ED0005364174B5B6C03F480633B613B690023D5
:102EE000FB60134B1B6B124A43F001031363104B3F
:102EF0001B6B03F00103FB60FB6802237B6203236F
:102F0000BB620023FB6207F124031946094801F064
:102F100075FA00220021122001F0A1F8122001F020
:102F2000BAF800BF3837BD4680BD00BF0020014061
:102F30000038024000000240002101400022014010
:102F400080B58AB000AF786007F1140300221A60E0
:102F50005A609A60DA601A617B681B68B3F1804F2F
:102F600033D100233B611B4B1B6C1A4A43F0010316
:102F70001364184B1B6C03F001033B613B69002396
:102F8000FB60144B1B6B134A43F001031363114B9B
:102F90001B6B03F00103FB60FB6801237B610223D1
:102FA000BB610023FB6100233B6201237B6207F1CD
:102FB00014031946084801F021FA002200211C20C0
:102FC00001F04DF81C2001F066F800BF2837BD461F
:102FD00080BD00BF003802400000024080B400AF56
:102FE000FEE780B400AFFEE780B400AFFEE780B438
:102FF00000AFFEE780B400AFFEE780B400AF00BFD3
:10300000BD465DF8047B704780B400AF00BFBD468D
:103010005DF8047B704780B400AF00BFBD465DF82B
:10302000047B704780B500AF00F0C2F900BF80BDDF
:1030300080B500AF02F02EFE00BF80BD80B500AFAE
:1030400001F044F800BF80BD80B400AF00BFBD46B2
:103050005DF8047B704780B500AF022001F084FB6F
:1030600000BF80BD80B500AF042001F07DFB00BF34
:1030700080BD80B500AF082001F076FB00BF80BDA9
:1030800080B500AF102001F06FFB00BF80BD0000D5
:1030900080B500AF054800F0A3FB054800F0A0FB99
:1030A000044800F09DFB00BF80BD00BFF00200207F
:1030B000380300208003002080B500AF202001F0FD
:1030C00053FB402001F050FB802001F04DFB00BF7E
:1030D00080BD000080B500AF024803F01FFE00BFB6
:1030E00080BD00BFC803002080B500AF024801F0DA
:1030F000A3FC00BF80BD00BF487F002080B400AFAC
:1031000000BFBD465DF8047B704780B400AF01236B
:103110001846BD465DF8047B704780B582B000AFAD
:103120007860396008F0F0FD034616221A604FF00F
:10313000FF3318460837BD4680BD80B582B000AF6A
:1031400078604FF0FF317868FFF7E7FFFEE780B562
:1031500086B000AFF860B9607A6000237B610AE056
:10316000AFF300800146BB685A1CBA60CAB21A703D
:103170007B6901337B617A697B689A42F0DB7B680B
:1031800018461837BD4680BD80B586B000AFF860E0
:10319000B9607A6000237B6109E0BB685A1CBA60A1
:1031A0001B781846AFF300807B6901337B617A6935
:1031B0007B689A42F1DB7B6818461837BD4680BDB4
:1031C00080B483B000AF78604FF0FF3318460C37FF
:1031D000BD465DF8047B704780B483B000AF786073
:1031E00039603B684FF400525A60002318460C3790
:1031F000BD465DF8047B704780B483B000AF786053
:10320000012318460C37BD465DF8047B704780B437
:1032100085B000AFF860B9607A60002318461437B3
:10322000BD465DF8047B704780B586B000AF78601E
:10323000144A154BD31A7B617B693B61134B1B68A6
:10324000002B02D1114B124A1A60104B1A687B688E
:1032500013443A699A4207D208F056FD03460C22FD
:103260001A604FF0FF3309E0084B1B68FB60074B07
:103270001A687B681344054A1360FB6818461837C0
:10328000BD4680BD0000022000040000406A00200E
:103290008886002080B400AF064BD3F88830054AFA
:1032A00043F47003C2F8883000BFBD465DF8047B6C
:1032B000704700BF00ED00E0DFF834D00D480E4944
:1032C0000E4A002302E0D458C4500433C4188C4280
:1032D000F9D30B4A0B4C002301E013600432A242E5
:1032E000FBD3FFF7D7FF08F015FDFFF7F5F87047A0
:1032F0000000022000000020D4020020140D01086C
:10330000D402002084860020FEE7000080B500AFD4
:103310000E4B1B680D4A43F4007313600B4B1B6884
:103320000A4A43F480631360084B1B68074A43F45E
:1033300080731360032000F087FE0F2000F008F870
:10334000FFF7FCFC0023184680BD00BF003C024094
:1033500080B582B000AF7860124B1A68124B1B78B0
:1033600019464FF47A73B3FBF1F3B2FBF3F318464B
:1033700000F09FFE0346002B01D001230EE07B6886
:103380000F2B0AD8002279684FF0FF3000F067FE5B
:10339000064A7B681360002300E0012318460837C3
:1033A000BD4680BD040000200C0000200800002065
:1033B00080B400AF064B1B781A46064B1B681344BB
:1033C000044A136000BFBD465DF8047B704700BF30
:1033D0000C000020446A002080B400AF034B1B683F
:1033E0001846BD465DF8047B704700BF446A002064
:1033F00080B584B000AF7860FFF7EEFFB8607B68FF
:10340000FB60FB68B3F1FF3F05D00A4B1B781A46FF
:10341000FB681344FB6000BFFFF7DEFF0246BB689A
:10342000D31AFA689A42F7D800BF00BF1037BD46DA
:1034300080BD00BF0C00002080B584B000AF786074
:103440000023FB737B68002B01D1012333E07B68F1
:103450001B6C002B09D17868FFF7B6FC7B68002253
:103460005A647B68002283F83C207B681B6C03F065
:103470001003002B18D17B681B6C23F4885323F0B6
:10348000020343F002027B681A64786800F006FCCD
:103490007B6800225A647B681B6C23F0030343F0B3
:1034A00001027B681A6401E00123FB737B68002240
:1034B00083F83C20FB7B18461037BD4680BD0000DA
:1034C00080B485B000AF78600023BB607B6893F860
:1034D0003C30012B01D10223B2E07B68012283F84A
:1034E0003C207B681B689B6803F00103012B18D00C
:1034F0007B681B689A687B681B6842F001029A60CF
:10350000524B1B68524AA2FB03239A0C13465B00E2
:103510001344BB6002E0BB68013BBB60BB68002B8F
:10352000F9D17B681B689B6803F00103012B7AD1FA
:103530007B681B6C23F4E06323F0010343F4807287
:103540007B681A647B681B685B6803F48063002BEC
:1035500007D07B681B6C23F4405343F480527B6894
:103560001A647B681B6C03F48053B3F5805F06D14B
:103570007B685B6C23F006027B685A6402E07B6820
:1035800000225A647B68002283F83C20314BFB60A8
:103590007B681B686FF022021A60FB685B6803F0AF
:1035A0001F03002B2AD17B681B682B4A934215D03E
:1035B0007B681B68294A934205D1264B5B6803F060
:1035C0001F03002B0AD07B681B68254A934236D123
:1035D000204B5B6803F01003002B30D17B681B6825
:1035E0009B6803F04053002B29D17B681B689A68C5
:1035F0007B681B6842F080429A6020E07B681B6811
:10360000154A93421BD17B681B689B6803F04053AB
:10361000002B14D17B681B689A687B681B6842F09A
:1036200080429A600BE07B681B6C43F010027B6861
:103630001A647B685B6C43F001027B685A64002368
:1036400018461437BD465DF8047B7047040000201F
:1036500083DE1B4300230140002001400021014084
:103660000022014080B483B000AF78607B6893F89B
:103670003C30012B01D1022321E07B68012283F839
:103680003C207B681B689A687B681B6822F00102FB
:103690009A607B681B689B6803F00103002B09D1CB
:1036A0007B681B6C23F4885323F0010343F0010271
:1036B0007B681A647B68002283F83C20002318464C
:1036C0000C37BD465DF8047B704780B584B000AF11
:1036D000786039600023FB607B681B689B6803F49B
:1036E0008063B3F5806F13D17B681B689B6803F41C
:1036F0008073B3F5807F0BD17B681B6C43F0200295
:103700007B681A647B68002283F83C20012363E015
:10371000FFF762FEF86021E03B68B3F1FF3F1DD088
:103720003B68002B07D0FFF757FE0246FB68D31A11
:103730003A689A4212D27B681B681B6803F0020346
:10374000022B0BD07B681B6C43F004027B681A646D
:103750007B68002283F83C2003233DE07B681B68E4
:103760001B6803F00203022BD6D17B681B686FF045
:1037700012021A607B681B6C43F400727B681A6447
:103780007B681B689B6803F04053002B23D17B6848
:103790001B7E002B1FD17B681B68DB6A03F4700360
:1037A000002B06D07B681B689B6803F48063002BAA
:1037B00011D17B681B6C23F480727B681A647B6870
:1037C0001B6C03F48053002B05D17B681B6C43F00A
:1037D00001027B681A64002318461037BD4680BD7D
:1037E00080B586B000AF786000237B6100233B6129
:1037F0007B681B681B68FB607B681B685B68BB6041
:10380000FB6803F002037B61BB6803F020033B61AC
:103810007B69002B49D03B69002B46D07B681B6C31
:1038200003F01003002B05D17B681B6C43F400727E
:103830007B681A647B681B689B6803F04053002B0D
:103840002BD17B681B7E002B27D17B681B68DB6A32
:1038500003F47003002B06D07B681B689B6803F49D
:103860008063002B19D17B681B685A687B681B68D2
:1038700022F020025A607B681B6C23F480727B6804
:103880001A647B681B6C03F48053002B05D17B68A2
:103890001B6C43F001027B681A64786800F0BDF885
:1038A0007B681B686FF012021A60FB6803F0040368
:1038B0007B61BB6803F080033B617B69002B57D0C1
:1038C0003B69002B54D07B681B6C03F01003002B6A
:1038D00005D17B681B6C43F400527B681A647B68DB
:1038E0001B689B6803F44013002B39D17B681B686D
:1038F0009B6B03F44013002B06D07B681B689B680E
:1039000003F48063002B2BD17B681B685B6803F496
:103910008063002B24D17B681B689B6803F04053B5
:10392000002B1DD17B681B7E002B19D17B681B6887
:103930005A687B681B6822F080025A607B681B6CA7
:1039400023F480527B681A647B681B6C03F48073D9
:10395000002B05D17B681B6C43F001027B681A6465
:10396000786800F097FA7B681B686FF00C021A60A9
:10397000FB6803F001037B61BB6803F040033B611C
:103980007B69002B17D03B69002B14D07B681B6828
:103990001B6803F00103012B0DD17B681B6C43F402
:1039A00080327B681A64786800F041F87B681B6895
:1039B0006FF001021A60FB6803F020037B61BB68B3
:1039C00003F080633B617B69002B15D03B69002BC2
:1039D00012D07B685B6C43F002027B685A647B68A0
:1039E0001B686FF020021A60786800F02AF87B6884
:1039F0001B686FF020021A6000BF1837BD4680BDFB
:103A000080B483B000AF78607B681B68DB6C1846BD
:103A10000C37BD465DF8047B704780B483B000AFBF
:103A2000786000BF0C37BD465DF8047B704780B4FA
:103A300083B000AF786000BF0C37BD465DF8047BF3
:103A4000704780B483B000AF786000BF0C37BD46CC
:103A50005DF8047B7047000080B485B000AF7860EB
:103A600039600023BB607B6893F83C30012B01D1A7
:103A7000022305E17B68012283F83C203B681B6838
:103A8000092B25D97B681B68D9683B681B689BB2EA
:103A90001A4613465B0013441E3B072202FA03F347
:103AA000DA437B681B680A40DA607B681B68D96868
:103AB0003B689A683B681B689BB2184603465B00EC
:103AC00003441E3B9A407B681B680A43DA6022E08D
:103AD0007B681B6819693B681B689BB21A461346D2
:103AE0005B001344072202FA03F3DA437B681B6886
:103AF0000A401A617B681B6819693B689A683B68D1
:103B00001B689BB2184603465B0003449A407B68DF
:103B10001B680A431A613B685B68062B24D87B68E4
:103B20001B68596B3B685A6813469B001344053B5E
:103B30001F2202FA03F3DA437B681B680A405A63C8
:103B40007B681B68596B3B681B689BB218463B68D7
:103B50005A6813469B001344053B00FA03F27B6846
:103B60001B680A435A634CE03B685B680C2B24D803
:103B70007B681B68196B3B685A6813469B001344AB
:103B8000233B1F2202FA03F3DA437B681B680A40D7
:103B90001A637B681B68196B3B681B689BB21846ED
:103BA0003B685A6813469B001344233B00FA03F218
:103BB0007B681B680A431A6323E07B681B68D96A29
:103BC0003B685A6813469B001344413B1F2202FA8C
:103BD00003F3DA437B681B680A40DA627B681B6880
:103BE000D96A3B681B689BB218463B685A68134603
:103BF0009B001344413B00FA03F27B681B680A43B5
:103C0000DA62224BFB607B681B68214A934209D130
:103C10003B681B68122B05D1FB685B6843F480028C
:103C2000FB685A607B681B68194A934223D13B6842
:103C30001B68102B03D03B681B68112B1BD1FB6842
:103C40005B6843F40002FB685A603B681B68102BFA
:103C500011D1104B1B68104AA2FB03239A0C134688
:103C60009B0013445B00BB6002E0BB68013BBB6090
:103C7000BB68002BF9D17B68002283F83C2000232D
:103C800018461437BD465DF8047B70470023014099
:103C9000002001400400002083DE1B4380B485B077
:103CA00000AF7860794BFB60FB685B6823F44032BF
:103CB000FB685A60FB685A687B685B681A43FB685C
:103CC0005A607B681B685A687B681B6822F48072A4
:103CD0005A607B681B6859687B681B691A027B689D
:103CE0001B680A435A607B681B685A687B681B68BC
:103CF00022F040725A607B681B6859687B689A683A
:103D00007B681B680A435A607B681B689A687B68FB
:103D10001B6822F400629A607B681B6899687B6864
:103D2000DA687B681B680A439A607B689B6A584A1A
:103D3000934222D07B681B689A687B681B6822F0DC
:103D400070629A607B681B6899687B689A6A7B6876
:103D50001B680A439A607B681B689A687B681B68CB
:103D600022F040529A607B681B6899687B68DA6A27
:103D70007B681B680A439A600FE07B681B689A683F
:103D80007B681B6822F070629A607B681B689A6887
:103D90007B681B6822F040529A607B681B689A68B7
:103DA0007B681B6822F002029A607B681B68996836
:103DB0007B681B7E5A007B681B680A439A607B689D
:103DC00093F82030002B1BD07B681B685A687B68F7
:103DD0001B6842F400625A607B681B685A687B6803
:103DE0001B6822F460425A607B681B6859687B68D4
:103DF0005B6A013B5A037B681B680A435A6007E011
:103E00007B681B685A687B681B6822F400625A60F2
:103E10007B681B68DA6A7B681B6822F47002DA62CE
:103E20007B681B68D96A7B68DB69013B1A057B6884
:103E30001B680A43DA627B681B689A687B681B68A8
:103E400022F400729A607B681B6899687B6893F81B
:103E500030305A027B681B680A439A607B681B6893
:103E60009A687B681B6822F480629A607B681B6892
:103E700099687B685B699A027B681B680A439A6051
:103E800000BF1437BD465DF8047B70470023014036
:103E90000100000F80B483B000AF786000BF0C3722
:103EA000BD465DF8047B704780B485B000AF786094
:103EB0007B6803F00703FB600C4BDB68BB60BA68F0
:103EC0004FF6FF031340BB60FB681A02BB68134345
:103ED00043F0BF6343F40033BB60044ABB68D36064
:103EE00000BF1437BD465DF8047B704700ED00E06D
:103EF00080B400AF044BDB681B0A03F007031846CD
:103F0000BD465DF8047B704700ED00E080B483B0EF
:103F100000AF0346FB7197F90730002B0BDBFB79F1
:103F200003F01F02074997F907305B09012000FAE7
:103F300002F241F8232000BF0C37BD465DF8047B38
:103F4000704700BF00E100E080B483B000AF0346DB
:103F50003960FB7197F90730002B0ADB3B68DAB256
:103F60000C4997F907301201D2B20B4483F80023B1
:103F70000AE03B68DAB20849FB7903F00F03043B1F
:103F80001201D2B20B441A7600BF0C37BD465DF861
:103F9000047B704700E100E000ED00E080B489B0F0
:103FA00000AFF860B9607A60FB6803F00703FB615B
:103FB000FB69C3F10703042B28BF0423BB61FB6922
:103FC0000433062B02D9FB69033B00E000237B612D
:103FD0004FF0FF32BB6902FA03F3DA43BB681A40C1
:103FE0007B699A404FF0FF317B6901FA03F3D943B3
:103FF0007B680B40134318462437BD465DF8047BAD
:104000007047000080B582B000AF78607B68013BEC
:10401000B3F1807F01D301230FE00A4A7B68013BA3
:1040200053600F214FF0FF30FFF78EFF054B00224A
:104030009A60044B07221A60002318460837BD46D1
:1040400080BD00BF10E000E080B582B000AF7860B6
:104050007868FFF729FF00BF0837BD4680BD80B5EF
:1040600086B000AF0346B9607A60FB7300237B61C2
:10407000FFF73EFF78617A68B9687869FFF78EFFCD
:10408000024697F90F3011461846FFF75DFF00BF53
:104090001837BD4680BD80B582B000AF0346FB71C6
:1040A00097F907301846FFF731FF00BF0837BD46C4
:1040B00080BD80B582B000AF78607868FFF7A2FF5E
:1040C000034618460837BD4680BD000080B582B063
:1040D00000AF00237B604B4BDB6803F0F203002B47
:1040E00020D0494B1B78DBB2012B07D1464BDB6854
:1040F0007B60454B4FF0FF32DA600BE0424B1B78A0
:10410000DBB2022B03D1404B1B697B6002E03E4BCC
:104110005B697B6000F08EF8786800F081F83A4BBC
:1041200000221A70374BDB6803F00103002B4AD0E2
:10413000344B0122DA60344B1B78DBB2012B2DD1DA
:10414000314B5B68013B304A53602F4B5B68002B5F
:1041500015D02D4BDB687B60786800F057F82A4B50
:10416000DB680133284AD360274BDB687B60264B32
:104170001B7ADBB21946786800F0B2F823E04FF002
:10418000FF337B60204A7B68D3601F4B00221A708C
:1041900000F0EEF8786800F039F814E01A4B1B785C
:1041A000DBB2022B07D100F0E3F8174B1B6918466E
:1041B00000F02CF804E0144B5B69184600F026F878
:1041C000114B00221A70104B1B78DBB2002B14D15C
:1041D0000C4B1B690B4A23F0FF031361094B1B694E
:1041E000084A23F080731361064B1B69054A23F0CC
:1041F00000731361044B00221A7600BF0837BD46D6
:1042000080BD00BF003C0240486A002080B483B0FB
:1042100000AF786000BF0C37BD465DF8047B704787
:1042200080B483B000AF786000BF0C37BD465DF846
:10423000047B704780B400AF274BDB6803F01003AA
:10424000002B08D0254BDB6943F01003234AD361D0
:10425000214B1022DA60204BDB6803F02003002B97
:1042600008D01E4BDB6943F008031C4AD3611A4B8C
:104270002022DA60184BDB6803F04003002B08D0E3
:10428000164BDB6943F00403144AD361124B4022FE
:10429000DA60114BDB6803F08003002B08D00F4B72
:1042A000DB6943F002030D4AD3610B4B8022DA60D5
:1042B000094BDB6803F00203002B08D0074BDB69D6
:1042C00043F02003054AD361034B0222DA6000BFAA
:1042D000BD465DF8047B7047003C0240486A002000
:1042E00080B485B000AF78600B46FB700023FB60A4
:1042F000FB78002B02D10023FB6010E0FB78012B40
:1043000003D14FF48073FB6009E0FB78022B03D1EB
:104310004FF40073FB6002E04FF44073FB60134BFB
:104320001B69124A23F440731361104B1A690F4939
:10433000FB6813430B610D4B1B690C4A23F0F80318
:1043400013610A4B1A697B68DB001343074A43F089
:1043500002031361054B1B69044A43F48033136164
:1043600000BF1437BD465DF8047B7047003C024037
:1043700080B400AF204B1B6803F40073002B17D0F0
:104380001D4B1B681C4A23F4007313601A4B1B68F7
:10439000194A43F400631360174B1B68164A23F451
:1043A00000631360144B1B68134A43F400731360DB
:1043B000114B1B6803F48063002B17D00E4B1B6856
:1043C0000D4A23F4806313600B4B1B680A4A43F4C5
:1043D00080531360084B1B68074A23F48053136013
:1043E000054B1B68044A43F48063136000BFBD465D
:1043F0005DF8047B704700BF003C024080B489B088
:1044000000AF7860396000237B6100233B610023AB
:10441000BB610023FB616BE10122FB6902FA03F33C
:104420007B613B681B687A6913403B613A697B6931
:104430009A4240F05A813B685B6803F00303012B0A
:1044400005D03B685B6803F00303022B30D17B6827
:104450009B68BB61FB695B00032202FA03F3DB4349
:10446000BA691340BB613B68DA68FB695B0002FA1A
:1044700003F3BA691343BB617B68BA699A607B68CE
:104480005B68BB610122FB6902FA03F3DB43BA6993
:104490001340BB613B685B681B0903F00102FB69C9
:1044A00002FA03F3BA691343BB617B68BA695A60C5
:1044B0003B685B6803F00303032B17D07B68DB6862
:1044C000BB61FB695B00032202FA03F3DB43BA69B9
:1044D0001340BB613B689A68FB695B0002FA03F317
:1044E000BA691343BB617B68BA69DA603B685B6891
:1044F00003F00303022B23D1FB69DA087B6808323F
:1045000053F82230BB61FB6903F007039B000F22C5
:1045100002FA03F3DB43BA691340BB613B681A69D3
:10452000FB6903F007039B0002FA03F3BA69134324
:10453000BB61FB69DA087B680832B96943F822106D
:104540007B681B68BB61FB695B00032202FA03F313
:10455000DB43BA691340BB613B685B6803F003024D
:10456000FB695B0002FA03F3BA691343BB617B6822
:10457000BA691A603B685B6803F44033002B00F0B3
:10458000B4800023FB60604B5B6C5F4A43F4804364
:1045900053645D4B5B6C03F48043FB60FB685B4AD8
:1045A000FB699B08023352F82330BB61FB6903F0BF
:1045B00003039B000F2202FA03F3DB43BA691340A3
:1045C000BB617B68524A93422BD07B68514A93422D
:1045D00025D07B68504A93421FD07B684F4A934254
:1045E00019D07B684E4A934213D07B684D4A934260
:1045F0000DD07B684C4A934207D07B684B4A93426C
:1046000001D107230EE008230CE006230AE005236E
:1046100008E0042306E0032304E0022302E0012370
:1046200000E00023FA6902F0030292009340BA69A5
:104630001343BB613549FB699B080233BA6941F8F2
:1046400023203B4B9B68BB613B69DB43BA6913404A
:10465000BB613B685B6803F48013002B03D0BA692D
:104660003B691343BB61324ABB699360304BDB68E3
:10467000BB613B69DB43BA691340BB613B685B6864
:1046800003F40013002B03D0BA693B691343BB61E9
:10469000274ABB69D360264B5B68BB613B69DB4340
:1046A000BA691340BB613B685B6803F40033002BBD
:1046B00003D0BA693B691343BB611D4ABB695360B0
:1046C0001B4B1B68BB613B69DB43BA691340BB6191
:1046D0003B685B6803F48033002B03D0BA693B6905
:1046E0001343BB61124ABB691360FB690133FB6171
:1046F000FB690F2B7FF690AE00BF00BF2437BD468D
:104700005DF8047B704700BF00380240003801406C
:10471000000002400004024000080240000C024079
:10472000001002400014024000180240001C024029
:10473000003C014080B483B000AF78600B467B80C2
:1047400013467B707B78002B03D07A887B689A6154
:1047500003E07B881A047B689A6100BF0C37BD4672
:104760005DF8047B7047000080B582B000AF03465F
:10477000FB80084B5A69FB881340002B06D0054A82
:10478000FB885361FB881846FDF70AFB00BF08371A
:10479000BD4680BD003C0140F0B58FB00AAF7860E7
:1047A0007B68002B01D101230FE17B681B68BB6094
:1047B0007B6893F8BD34DBB2002B06D17B68002206
:1047C00083F8BC24786806F08BFF7B68032283F8AB
:1047D000BD24BB68DB6B03F48073002B02D17B68C4
:1047E00000221A617B681B68184603F072FA7B6826
:1047F0001B683B607E686D4606F110040FCC0FC548
:104800000FCC0FC594E8030085E80300331D0ECBE1
:10481000386803F049F90346002B05D07B68022273
:1048200083F8BD240123D0E07B681B680021184673
:1048300003F060FA0023FB734AE0FA7B79681346C1
:10484000DB0013449B000B443D3301221A70FA7BBA
:1048500079681346DB0013449B000B443C33FA7B1E
:104860001A70FA7BFB7B98B279681346DB0013441D
:104870009B000B44443302461A80FA7B7968134646
:10488000DB0013449B000B44403300221A70FA7B78
:1048900079681346DB0013449B000B444833002225
:1048A0001A60FA7B79681346DB0013449B000B44C3
:1048B0004C3300221A60FA7B79681346DB001344FC
:1048C0009B000B44543300221A60FB7B0133FB73C3
:1048D000FA7B7B685B689A42AFD30023FB7344E0AA
:1048E000FA7B79681346DB0013449B000B4403F208
:1048F0007D2300221A70FA7B79681346DB0013448B
:104900009B000B4403F51F73FA7B1A70FA7B7968DE
:104910001346DB0013449B000B4403F52073002275
:104920001A70FA7B79681346DB0013449B000B4432
:1049300003F5227300221A60FA7B79681346DB00C4
:1049400013449B000B4403F5237300221A60FA7B87
:1049500079681346DB0013449B000B4403F5257371
:1049600000221A60FB7B0133FB73FA7B7B685B6878
:104970009A42B5D37B681B683B607E686D4606F142
:1049800010040FCC0FC50FCC0FC594E8030085E8C9
:104990000300331D0ECB386803F0F8F90346002BF3
:1049A00005D07B68022283F8BD2401230DE07B68DB
:1049B000002283F838207B68012283F8BD247B68BD
:1049C0001B68184604F047FB002318461437BD4601
:1049D000F0BD80B584B000AF78607B681B68FB6079
:1049E0007B6893F8BC34012B01D1022320E07B6863
:1049F000012283F8BC247B689B6A012B09D17B6868
:104A00009B69012B05D0FB689B6B43F48032FB68EC
:104A10009A637B681B68184603F04AF97B681B6839
:104A2000184604F0F7FA7B68002283F8BC240023C0
:104A300018461037BD4680BD90B58DB000AF786088
:104A40007B681B683B623B6AFB617B681B6818469E
:104A500004F0B5FB0346002B40F08A847B681B689A
:104A6000184604F019FB0346002B00F08084FB6914
:104A700003F500639B681B0AC3F30D027B68C3F850
:104A8000FC247B681B68184604F006FB034603F011
:104A90000203022B07D17B681B685A697B681B687D
:104AA00002F002025A617B681B68184604F0F4FAAF
:104AB000034603F01003102B61D17B681B689A69D1
:104AC0007B681B6822F010029A613B6A1B6ABB611B
:104AD000BB6903F00F021346DB0013449B0003F590
:104AE0001E737A68134404337B61BB695B0C03F06B
:104AF0000F03022B24D1BA6947F6F0731340002B41
:104B000035D07B691969BB691B099BB2C3F30A03E2
:104B10009BB21A46386A04F02BF97B691A69BB69A3
:104B20001B09C3F30A031A447B691A617B691A6A79
:104B3000BB691B09C3F30A031A447B691A6216E0B6
:104B4000BB695B0C03F00F03062B10D17B6803F2EB
:104B5000C44308221946386A04F00AF97B691A6AC4
:104B6000BB691B09C3F30A031A447B691A627B6899
:104B70001B689A697B681B6842F010029A617B6827
:104B80001B68184604F088FA034603F40023B3F5C3
:104B9000002F40F0A78000237B627B681B681846CB
:104BA00004F08DFAB86299E0BB6A03F00103002BB0
:104BB00000F08E807B681B687A6AD2B21146184674
:104BC00004F0B1FA38613B6903F00103002B0CD00B
:104BD0007B6A5A01FB69134403F530631A460123CB
:104BE0009360796A786800F0C3FE3B6903F00803BC
:104BF000002B0CD07B6A5A01FB69134403F5306328
:104C00001A4608239360796A786800F099FF3B6937
:104C100003F01003002B08D07B6A5A01FB69134490
:104C200003F530631A46102393603B6903F00203D7
:104C3000002B30D03B6A5B6903F08003802B09D1E5
:104C4000FB6903F500635B68FA6902F5006243F4EF
:104C5000806353607A6A1346DB0013449B0003F5BC
:104C60001E737A68134404337B617B69DB78012B04
:104C700008D17B690022DA707B6ADBB2194678685A
:104C800006F034FE7B6A5A01FB69134403F5306376
:104C90001A46022393603B6903F02003002B08D0DF
:104CA0007B6A5A01FB69134403F530631A462023DB
:104CB00093603B6903F40053002B09D07B6A5A01CF
:104CC000FB69134403F530631A464FF400539360B5
:104CD0007B6A01337B62BB6A5B08BB62BB6A002BE9
:104CE0007FF462AF7B681B68184604F0D5F9034671
:104CF00003F48023B3F5802F40F0DB807B681B68D2
:104D0000184604F0F6F9B86200237B62CDE0BB6A76
:104D100003F00103002B00F0C2807B681B687A6AF5
:104D2000D2B21146184604F01CFA38613B6903F010
:104D30000103002B57D07B6A03F00F03012202FA14
:104D400003F3FB60FB6903F500635A6BFB68DB430D
:104D5000F96901F5006113404B637B6A5A01FB69F5
:104D6000134403F510631A46012393607B681B69A3
:104D7000012B32D179687A6A1346DB0013449B0019
:104D80000B444C33196878687A6A1346DB00134485
:104D90009B00034448331B68194478687A6A1346B9
:104DA000DB0013449B0003444C3319607B6A002BE7
:104DB00013D179687A6A1346DB0013449B000B44D5
:104DC00054331B68002B08D17B6818687B6803F29A
:104DD000C4431A46012104F023FA7B6ADBB2194668
:104DE000786806F0FEFC3B6903F00803002B08D04E
:104DF0007B6A5A01FB69134403F510631A460823C2
:104E000093603B6903F01003002B08D07B6A5A01C2
:104E1000FB69134403F510631A46102393603B6942
:104E200003F04003002B08D07B6A5A01FB6913444E
:104E300003F510631A46402393603B6903F00203B5
:104E4000002B23D0796A386A03F004F97A6A134692
:104E5000DB0013449B0038337A68134404337B61CE
:104E60007B69DB78012B08D17B690022DA707B6AD1
:104E7000DBB21946786806F04BFD7B6A5A01FB6984
:104E8000134403F510631A46022393603B6903F051
:104E90008003002B03D0796A786800F0DBFC7B6A22
:104EA00001337B62BB6A5B08BB62BB6A002B7FF489
:104EB0002EAF7B681B68184604F0EEF8034603F03B
:104EC0000043B3F1004F22D1FB6903F500635B6837
:104ED000FA6902F5006223F0010353607B6893F8DE
:104EE000F434012B08D17B68002283F8F4240021DC
:104EF000786800F0C3FE02E0786806F0E9FC7B68A1
:104F00001B685A697B681B6802F000425A617B6823
:104F10001B68184604F0C0F8034603F40063B3F5B9
:104F2000006F12D1FB6903F500639B6803F0010376
:104F3000012B02D1786806F0A5FC7B681B685A69D2
:104F40007B681B6802F400625A617B681B68184624
:104F500004F0A2F8034603F48053B3F5805F40F0F9
:104F6000B780FB6903F500635B68FA6902F50062CC
:104F700023F0010353607B681B681021184603F07F
:104F800069F80023FB6246E0FB6A5A01FB6913449F
:104F900003F510631A464FF67F339360FB6A5A019C
:104FA000FB69134403F510631B68FA6A5101FA693F
:104FB0000A4402F5106223F400131360FB6A5A01DD
:104FC000FB69134403F530631A464FF67F33936051
:104FD000FB6A5A01FB69134403F530631B68FA6AE4
:104FE0005101FA690A4402F5306223F40013136098
:104FF000FB6A5A01FB69134403F530631B68FA6AC4
:105000005101FA690A4402F5306243F0006313600B
:10501000FB6A0133FB627B685B68FA6A9A42B3D32E
:10502000FB6903F50063DB69FA6902F5006243F08E
:105030000113D3617B681B6B002B16D0FB6903F552
:105040000063D3F88430FA6902F5006243F00B0381
:10505000C2F88430FB6903F500635B6CFA6902F502
:10506000006243F00B03536415E0FB6903F5006332
:105070005B69FA6902F5006243F4005343F02B03C5
:105080005361FB6903F500631B69FA6902F500626D
:1050900043F00B031361FB6903F500631B68FA69B6
:1050A00002F5006223F4FE6313607B6818687B6876
:1050B0001B69D9B27B6803F2C4431A4604F0B0F806
:1050C0007B681B685A697B681B6802F480525A61CE
:1050D0007B681B68184603F0DFFF034603F40053A8
:1050E000B3F5005F24D17B681B68184604F075F89F
:1050F0007B681B68184603F02AF803461A467B684B
:10510000DA607B681C6801F041FA01467B68DB6865
:10511000DBB21A46204602F029FD786806F089FBCA
:105120007B681B685A697B681B6802F400525A61ED
:105130007B681B68184603F0AFFF034603F00803C3
:10514000082B0AD1786806F066FB7B681B685A69F1
:105150007B681B6802F008025A617B681B6818466E
:1051600003F09AFF034603F08003802B22D13B6AB1
:105170009B6923F080023B6A9A6101237B6214E001
:1051800079687A6A1346DB0013449B000B4403F2F0
:105190007F231B78012B05D17B6ADBB21946786827
:1051A00000F027FB7B6A01337B627B685B687A6A6D
:1051B0009A42E5D37B681B68184603F06DFF0346EF
:1051C00003F48013B3F5801F3BD101237B622BE0F6
:1051D0007B6A5A01FB69134403F510631B68BB61CA
:1051E00079687A6A1346DB0013449B000B44403312
:1051F0001B78012B15D1BB69002B12DA79687A6A0A
:105200001346DB0013449B000B443F3301221A700A
:105210007B6ADBB263F07F03DBB21946786800F08B
:10522000E8FA7B6A01337B627B685B687A6A9A4240
:10523000CED37B681B685A697B681B6802F48012B6
:105240005A617B681B68184603F026FF034603F487
:105250000013B3F5001F55D101237B6245E07B6A43
:105260005A01FB69134403F530631B68BB6179681D
:105270007A6A1346DB0013449B000B4403F520734A
:105280001B78012B2ED1BB69002B2BDABB6903F4F1
:1052900080327B68D3F8FC3403F001039A4221D1B9
:1052A00079687A6A1346DB0013449B000B4403F2CF
:1052B0007F2301221A703B6A9B6943F080023B6A9C
:1052C0009A613B6A5B6903F08003002B0AD1FB699A
:1052D00003F500635B68FA6902F5006243F400734A
:1052E000536007E07B6A01337B627B685B687A6AA4
:1052F0009A42B4D37B681B685A697B681B6802F4C6
:1053000000125A617B681B68184603F0C5FE03460D
:1053100003F08043B3F1804F0AD1786806F00AFBAE
:105320007B681B685A697B681B6802F080425A617F
:105330007B681B68184603F0AFFE034603F00403C6
:10534000042B15D17B681B685B68BB61BB6903F0EC
:105350000403002B02D0786806F0FAFA7B681B6819
:1053600059687B681B68BA690A435A6000E000BF4D
:105370003437BD4690BD80B582B000AF78600B4633
:10538000FB707B6893F8BC34012B01D1022313E03E
:105390007B68012283F8BC247B68FA7883F8382084
:1053A0007B681B68FA781146184603F00DFE7B688F
:1053B000002283F8BC24002318460837BD4680BD70
:1053C00080B584B000AF7860084611461A4603469F
:1053D000FB700B463B801346BB700023FB7297F9B2
:1053E0000330002B0FDAFB7803F00F021346DB00CB
:1053F00013449B0038337A6813440433FB60FB6822
:1054000001225A700FE0FB7803F00F021346DB0015
:1054100013449B0003F51E737A6813440433FB6046
:10542000FB6800225A70FB7803F00F03DAB2FB68C6
:105430001A703A88FB68DA60FB68BA781A71FB6800
:105440005B78002B04D0FB681B789AB2FB681A814A
:10545000BB78022B02D1FB6800225A717B6893F85B
:10546000BC34012B01D102230EE07B68012283F8BA
:10547000BC247B681B68F968184602F08DFE7B68C7
:10548000002283F8BC24FB7A18461037BD4680BD45
:1054900080B584B000AF78600B46FB7097F903309D
:1054A000002B0FDAFB7803F00F021346DB001344E6
:1054B0009B0038337A6813440433FB60FB68012295
:1054C0005A700FE0FB7803F00F021346DB00134421
:1054D0009B0003F51E737A6813440433FB60FB687A
:1054E00000225A70FB7803F00F03DAB2FB681A70DF
:1054F0007B6893F8BC34012B01D102230EE07B685A
:10550000012283F8BC247B681B68F968184602F006
:10551000CBFE7B68002283F8BC240023184610379A
:10552000BD4680BD80B586B000AFF8607A603B6054
:105530000B46FB72FB7A03F00F021346DB001344A9
:105540009B0003F51E73FA68134404337B617B6987
:105550007A681A617B693A689A617B6900221A62EB
:105560007B6900225A70FB7A03F00F03DAB27B6981
:105570001A70FB681B69012B02D17A687B695A613A
:10558000FB7A03F00F03002B09D1FB681868FB6856
:105590001B69DBB21A46796903F0AAF908E0FB68D7
:1055A0001868FB681B69DBB21A46796902F058FF7C
:1055B000002318461837BD4680BD80B483B000AFC5
:1055C00078600B46FB70FB7803F00F027968134696
:1055D000DB0013449B000B4403F527731B6818463C
:1055E0000C37BD465DF8047B704780B586B000AFD0
:1055F000F8607A603B600B46FB72FB7A03F00F02A7
:105600001346DB0013449B003833FA681344043319
:105610007B617B697A681A617B693A689A617B6908
:1056200000221A627B6901225A70FB7A03F00F0391
:10563000DAB27B691A70FB681B69012B02D17A68A8
:105640007B695A61FB7A03F00F03002B09D1FB68D9
:105650001868FB681B69DBB21A46796903F048F9E0
:1056600008E0FB681868FB681B69DBB21A467969B9
:1056700002F0F6FE002318461837BD4680BD80B5FF
:1056800084B000AF78600B46FB70FB7803F00F022C
:105690007B685B689A4201D9012350E097F9033097
:1056A000002B0FDAFB7803F00F021346DB001344E4
:1056B0009B0038337A6813440433FB60FB68012293
:1056C0005A700DE0FA781346DB0013449B0003F593
:1056D0001E737A6813440433FB60FB6800225A701F
:1056E000FB6801229A70FB7803F00F03DAB2FB68C3
:1056F0001A707B6893F8BC34012B01D102231EE0A1
:105700007B68012283F8BC247B681B68F968184613
:1057100003F086FBFB7803F00F03002B0AD17B68B4
:1057200018687B681B69D9B27B6803F2C4431A46C8
:1057300003F076FD7B68002283F8BC240023184622
:105740001037BD4680BD80B584B000AF78600B4691
:10575000FB70FB7803F00F027B685B689A4201D90B
:10576000012342E097F90330002B0FDAFB7803F0B6
:105770000F021346DB0013449B0038337A6813444E
:105780000433FB60FB6801225A700FE0FB7803F0E2
:105790000F021346DB0013449B0003F51E737A6867
:1057A00013440433FB60FB6800225A70FB6800223C
:1057B0009A70FB7803F00F03DAB2FB681A707B680B
:1057C00093F8BC34012B01D102230EE07B68012247
:1057D00083F8BC247B681B68F968184603F08EFBCD
:1057E0007B68002283F8BC24002318461037BD468E
:1057F00080BD80B584B000AF78600B46FB7097F930
:105800000330002B0CDAFB7803F00F021346DB00A9
:1058100013449B0038337A6813440433FB600CE074
:10582000FB7803F00F021346DB0013449B0003F5E3
:105830001E737A6813440433FB607B681B68F96845
:10584000184603F0ADF90346FB72FB7A1846103791
:10585000BD4680BD80B58AB002AF786039607B6894
:105860001B687B617B693B613A681346DB0013442C
:105870009B0038337A6813440433FB60FB681A6A70
:10588000FB689B699A4201D901236CE0FB689A6925
:10589000FB681B6AD31AFB61FB68DB68FA699A42F2
:1058A00002D9FB68DB68FB61FB6903339B08BB61C2
:1058B0002BE0FB689A69FB681B6AD31AFB61FB68E3
:1058C000DB68FA699A4202D9FB68DB68FB61FB6915
:1058D00003339B08BB61FB6819693B68DAB2FB695B
:1058E00098B27B681B69DBB200930346786903F0CA
:1058F00001FAFB681A69FB691A44FB681A61FB68C4
:105900001A6AFB691A44FB681A623B685A013B69D0
:10591000134403F510639B699BB2BA699A4209D894
:10592000FB681A6AFB689B699A4203D2FB689B6911
:10593000002BBED1FB689A69FB681B6A9A4211D89A
:105940003B6803F00F03012202FA03F3BB603B69DB
:1059500003F500635A6BBB68DB43396901F50061ED
:1059600013404B63002318462037BD4680BD00001E
:1059700080B588B000AF786039607B681B68FB61D8
:10598000FB69BB61FB693C3304331B687B613B688B
:105990005A01BB69134403F530639B683B617B6824
:1059A0001B69012B7BD13B6903F00803002B15D049
:1059B0007B69614A934240F2B9803B6903F400433A
:1059C000002B00F0B3803B685A01BB69134403F518
:1059D00030631A464FF400439360A7E03B6903F03D
:1059E0002003002B09D03B685A01BB69134403F51F
:1059F00030631A462023936098E03B6903F0280344
:105A0000002B40F093807B694B4A93420FD93B694E
:105A100003F40043002B0AD03B685A01BB691344CE
:105A200003F530631A464FF4004393607EE03A6812
:105A30001346DB0013449B0003F51E737A6813447E
:105A40000433FB60FB68DA693B685901BB690B44AE
:105A500003F530631B69C3F31203D21AFB681A62A1
:105A60003B68002B14D1FB689B69002B09D17B6834
:105A700018687B6803F2C4431A46012103F0D0FB87
:105A800006E0FB681A69FB681B6A1A44FB681A6126
:105A90003B68DBB21946786805F088FE46E07B6912
:105AA000264A934224D13B6903F40043002B0AD0D9
:105AB0003B685A01BB69134403F530631A464FF43F
:105AC0000043936032E03B6903F02003002B08D0D1
:105AD0003B685A01BB69134403F530631A4620231F
