:020000040800F2
:10000000000002206D2600089123000897230008B5
:100010009D230008A3230008A92300080000000076
:10002000000000000000000000000000AF230008F6
:10003000BD23000800000000CB230008D9230008DE
:10004000BD260008E5230008BD260008BD260008DF
:10005000F1230008FD230008BD2600080B2400083A
:10006000192400082724000835240008BD260008AC
:10007000BD260008BD260008BD260008BD260008D4
:10008000BD260008BD26000845240008BD2600083E
:10009000BD260008BD260008BD2600086D24000806
:1000A000BD260008BD260008BD260008BD260008A4
:1000B00089240008BD260008BD260008BD260008CA
:1000C000BD260008BD260008BD260008BD26000884
:1000D000BD260008BD260008BD260008BD26000874
:1000E000BD260008BD260008BD260008BD26000864
:1000F000BD260008BD260008BD260008BD26000854
:10010000BD260008BD260008BD260008BD26000843
:10011000BD260008BD260008BD260008BD26000833
:10012000BD260008BD260008BD260008BD26000823
:10013000BD260008BD260008BD260008BD26000813
:10014000BD260008BD260008BD2600089D24000825
:10015000BD260008BD260008BD260008BD260008F3
:10016000BD260008BD260008BD260008BD260008E3
:10017000BD260008BD260008BD26000800000000BE
:08018000BD260008B1240008AF
:1001900010B5054C237833B9044B13B10448AFF3C1
:1001A00000800123237010BDD00200200000000059
:1001B00000FA000808B5034B1BB103490348AFF32D
:1001C000008008BD00000000D402002000FA0008F2
:1001D000034613F8012B002AFBD1181A0138704787
:1001E00001F0FF01102A2BDB10F0070F08D010F8E8
:1001F000013B013A8B422DD010F0070F42B3F6D1EC
:10020000F0B441EA012141EA014122F007047FF004
:1002100000070023F0E80256083C85EA010586EA5B
:10022000010685FA47F5A3FA87F586FA47F6A5FA97
:1002300087F68EB9EED1F0BC01F0FF0102F00702A3
:1002400032B110F8013B013A83EA010313B1F8D14E
:100250000020704701387047002D06BF354603382F
:10026000073815F0010F07D1013015F4807F02BF68
:10027000013015F4C03F0130F0BC0138704700BFB9
:1002800081F0004102E000BF83F0004330B54FEA47
:1002900041044FEA430594EA050F08BF90EA020FB4
:1002A0001FBF54EA000C55EA020C7FEA645C7FEA47
:1002B000655C00F0E2804FEA5454D4EB5555B8BF6A
:1002C0006D420CDD2C4480EA020281EA030382EADB
:1002D000000083EA010180EA020281EA0303362D6D
:1002E00088BF30BD11F0004F4FEA01314FF4801C40
:1002F0004CEA113102D0404261EB410113F0004F52
:100300004FEA03334CEA133302D0524263EB430308
:1003100094EA050F00F0A780A4F10104D5F1200EA6
:100320000DDB02FA0EFC22FA05F2801841F1000101
:1003300003FA0EF2801843FA05F359410EE0A5F1D5
:1003400020050EF1200E012A03FA0EFC28BF4CF006
:10035000020C43FA05F3C01851EBE37101F00045BC
:1003600007D54FF0000EDCF1000C7EEB00006EEBC9
:100370000101B1F5801F1BD3B1F5001F0CD3490853
:100380005FEA30004FEA3C0C04F101044FEA4452AA
:1003900012F5800F80F09A80BCF1004F08BF5FEA31
:1003A000500C50F1000041EB045141EA050130BD11
:1003B0005FEA4C0C404141EB0101013C28BFB1F523
:1003C000801FE9D291F0000F04BF01460020B1FA6E
:1003D00081F308BF2033A3F10B03B3F120020CDA41
:1003E0000C3208DD02F1140CC2F10C0201FA0CF01F
:1003F00021FA02F10CE002F11402D8BFC2F1200C84
:1004000001FA02F120FA0CFCDCBF41EA0C01904039
:10041000E41AA2BF01EB0451294330BD6FEA040482
:100420001F3C1CDA0C340EDC04F11404C4F120026D
:1004300020FA04F001FA02F340EA030021FA04F37F
:1004400045EA030130BDC4F10C04C4F1200220FAD6
:1004500002F001FA04F340EA0300294630BD21FA14
:1004600004F0294630BD94F0000F83F4801306BFDA
:1004700081F480110134013D4EE77FEA645C18BFCE
:100480007FEA655C29D094EA050F08BF90EA020F65
:1004900005D054EA000C04BF1946104630BD91EA5D
:1004A000030F1EBF0021002030BD5FEA545C05D160
:1004B0004000494128BF41F0004130BD14F580049F
:1004C0003CBF01F5801130BD01F0004545F0FE4113
:1004D00041F470014FF0000030BD7FEA645C1ABF48
:1004E000194610467FEA655C1CBF0B46024650EA7F
:1004F000013406BF52EA033591EA030F41F40021AB
:1005000030BD00BF90F0000F04BF0021704730B530
:100510004FF4806404F132044FF000054FF0000105
:1005200050E700BF90F0000F04BF0021704730B5C6
:100530004FF4806404F1320410F0004548BF40429B
:100540004FF000013EE700BF42004FEAE2014FEAF0
:1005500031014FEA02701FBF12F07F4393F07F4FCB
:1005600081F06051704732F07F4208BF704793F0CE
:100570007F4F04BF41F40021704730B54FF46074E1
:1005800001F0004521F000411CE700BF50EA0102E4
:1005900008BF704730B54FF000050AE050EA01028D
:1005A00008BF704730B511F0004502D5404261EBFD
:1005B00041014FF4806404F132045FEA915C3FF43E
:1005C000D8AE4FF003025FEADC0C18BF03325FEADB
:1005D000DC0C18BF033202EBDC02C2F1200300FA8C
:1005E00003FC20FA02F001FA03FE40EA0E0021FAB1
:1005F00002F11444BDE600BF70B54FF0FF0C4CF49F
:10060000E06C1CEA11541DBF1CEA135594EA0C0F50
:1006100095EA0C0F00F0DEF82C4481EA030621EA8B
:100620004C5123EA4C5350EA013518BF52EA0335C6
:1006300041F4801143F4801338D0A0FB02CE4FF078
:100640000005E1FB02E506F00042E0FB03E54FF0A8
:100650000006E1FB03569CF0000F18BF4EF0010EA0
:10066000A4F1FF04B6F5007F64F5407404D25FEA9C
:100670004E0E6D4146EB060642EAC62141EA55514F
:100680004FEAC52040EA5E504FEACE2EB4F1FD0C91
:1006900088BFBCF5E06F1ED8BEF1004F08BF5FEA0F
:1006A000500E50F1000041EB045170BD06F00046C1
:1006B00046EA010140EA020081EA0301B4EB5C046E
:1006C000C2BFD4EB0C0541EA045170BD41F4801166
:1006D0004FF0000E013C00F3AB8014F1360FDEBF8B
:1006E000002001F0004170BDC4F10004203C35DA67
:1006F0000C341BDC04F11404C4F1200500FA05F3EA
:1007000020FA04F001FA05F240EA020001F000428A
:1007100021F0004110EBD37021FA04F642EB060100
:100720005EEA430E08BF20EAD37070BDC4F10C042A
:10073000C4F1200500FA04F320FA05F001FA04F2EE
:1007400040EA020001F0004110EBD37041F10001DA
:100750005EEA430E08BF20EAD37070BDC4F12005E5
:1007600000FA05F24EEA020E20FA04F301FA05F24D
:1007700043EA020321FA04F001F0004121FA04F2F5
:1007800020EA020000EBD3705EEA430E08BF20EAC5
:10079000D37070BD94F0000F0FD101F000464000FF
:1007A00041EB010111F4801F08BF013CF7D041EA81
:1007B000060195F0000F18BF704703F00046520085
:1007C00043EB030313F4801F08BF013DF7D043EA56
:1007D0000603704794EA0C0F0CEA135518BF95EA0C
:1007E0000C0F0CD050EA410618BF52EA4306D1D193
:1007F00081EA030101F000414FF0000070BD50EAB2
:10080000410606BF1046194652EA430619D094EA3B
:100810000C0F02D150EA013613D195EA0C0F05D125
:1008200052EA03361CBF104619460AD181EA030179
:1008300001F0004141F0FE4141F470014FF0000031
:1008400070BD41F0FE4141F4780170BD70B54FF0CC
:10085000FF0C4CF4E06C1CEA11541DBF1CEA13554C
:1008600094EA0C0F95EA0C0F00F0A7F8A4EB05042E
:1008700081EA030E52EA03354FEA013100F0888025
:100880004FEA03334FF0805545EA131343EA1263EE
:100890004FEA022245EA111545EA10654FEA0026A3
:1008A0000EF000419D4208BF964244F1FD0404F55C
:1008B000407402D25B084FEA3202B61A65EB0305B8
:1008C0005B084FEA32024FF480104FF4002CB6EB75
:1008D000020E75EB030E22BFB61A754640EA0C00F5
:1008E0005B084FEA3202B6EB020E75EB030E22BF35
:1008F000B61A754640EA5C005B084FEA3202B6EB76
:10090000020E75EB030E22BFB61A754640EA9C0034
:100910005B084FEA3202B6EB020E75EB030E22BF04
:10092000B61A754640EADC0055EA060E18D04FEAC2
:10093000051545EA16754FEA06164FEAC30343EA62
:1009400052734FEAC2025FEA1C1CC0D111F4801F2F
:100950000BD141EA00014FF000004FF0004CB6E728
:1009600011F4801F04BF01430020B4F1FD0C88BFC7
:10097000BCF5E06F3FF6AFAEB5EB030C04BFB6EBD2
:10098000020C5FEA500C50F1000041EB045170BDC5
:100990000EF0004E4EEA113114EB5C04C2BFD4EBF2
:1009A0000C0541EA045170BD41F480114FF0000E76
:1009B000013C90E645EA060E8DE60CEA135594EAF2
:1009C0000C0F08BF95EA0C0F3FF43BAF94EA0C0FF5
:1009D0000AD150EA01347FF434AF95EA0C0F7FF46A
:1009E00025AF104619462CE795EA0C0F06D152EABE
:1009F00003353FF4FDAE1046194622E750EA4106A2
:100A000018BF52EA43067FF4C5AE50EA41047FF4B2
:100A10000DAF52EA43057FF4EBAE12E74FF0FF3C17
:100A200006E000BF4FF0010C02E000BF4FF0010CE8
:100A30004DF804CD4FEA410C7FEA6C5C4FEA430C61
:100A400018BF7FEA6C5C1BD001B050EA410C0CBFB0
:100A500052EA430C91EA030F02BF90EA020F002012
:100A6000704710F1000F91EA030F58BF994208BF79
:100A700090422CBFD8176FEAE37040F00100704736
:100A80004FEA410C7FEA6C5C02D150EA013C07D18D
:100A90004FEA430C7FEA6C5CD6D152EA033CD3D0D8
:100AA0005DF8040B704700BF8446104662468C46D2
:100AB0001946634600E000BF01B5FFF7B7FF002805
:100AC00048BF10F1000F01BD4DF808EDFFF7F4FF2E
:100AD0000CBF012000205DF808FB00BF4DF808EDB9
:100AE000FFF7EAFF34BF012000205DF808FB00BFDC
:100AF0004DF808EDFFF7E0FF94BF012000205DF8FE
:100B000008FB00BF4DF808EDFFF7CEFF94BF0120B2
:100B100000205DF808FB00BF4DF808EDFFF7C4FFAB
:100B200034BF012000205DF808FB00BF4FEA410CF4
:100B30007FEA6C5C02D150EA013C0AD14FEA430CD7
:100B40007FEA6C5C02D152EA033C02D14FF0000014
:100B500070474FF0010070474FEA410212F5001252
:100B600015D211D56FF47873B3EB625212D94FEAF4
:100B7000C12343F0004343EA505311F0004F23FADE
:100B800002F018BF404270474FF00000704750EA33
:100B9000013005D111F0004008BF6FF000407047F0
:100BA0004FF00000704700BF4A0011D212F500124A
:100BB00011D20DD56FF47873B3EB62520ED44FEAB5
:100BC000C12343F0004343EA505323FA02F0704735
:100BD0004FF00000704750EA013002D14FF0FF3073
:100BE00070474FF0000070474FEA4102B2F1E04316
:100BF00024BFB3F5001CDCF1FE5C0DD901F0004C04
:100C00004FEAC0024CEA5070B2F1004F40EB830053
:100C100008BF20F00100704711F0804F21D113F17F
:100C20003872BCBF01F00040704741F480114FEAB8
:100C30005252C2F11802C2F1200C10FA0CF320FA41
:100C400002F018BF40F001004FEAC1234FEAD3235E
:100C500003FA0CFC40EA0C0023FA02F34FEA4303C8
:100C6000CCE77FEA625307D150EA01331EBF4FF051
:100C7000FE4040F44000704701F0004040F0FE406C
:100C800040F40000704700BF53B94AB9002908BFBB
:100C900000281CBF4FF0FF314FF0FF3000F0AAB921
:100CA000ADF1080C6DE904CE00F03CF8DDF804E08D
:100CB000DDE9022304B0704738B500220023044662
:100CC0000D46FFF70BFF28B920462946BDE83840FE
:100CD00000F00AB8204605F1004100F005F8404256
:100CE00061EB410138BD00BFD0B50C4B0022064678
:100CF0000F46FFF781FCFFF757FF0446FFF702FCA2
:100D0000074B0022FFF778FC02460B463046394677
:100D1000FFF7BAFAFFF748FF2146D0BD0000F03DCB
:100D20000000F0412DE9F047089D04468E46002B57
:100D30004DD18A42944669D9B2FA82F252B101FA8F
:100D400002F3C2F1200120FA01F10CFA02FC41EA9F
:100D5000030E94404FEA1C48210CBEFBF8F61FFA24
:100D60008CF708FB16E341EA034306FB07F19942BF
:100D70000AD91CEB030306F1FF3080F01F81994272
:100D800040F21C81023E63445B1AA4B2B3FBF8F04C
:100D900008FB103344EA034400FB07F7A7420AD9D3
:100DA0001CEB040400F1FF3380F00A81A74240F2FB
:100DB00007816444023840EA0640E41B00261DB166
:100DC000D4400023C5E900433146BDE8F0878B429B
:100DD00009D9002D00F0EF800026C5E9000130465A
:100DE0003146BDE8F087B3FA83F6002E4AD18B4234
:100DF00002D3824200F2F980841A61EB03030120DE
:100E00009E46002DE0D0C5E9004EDDE702B9FFDEC9
:100E1000B2FA82F2002A40F09280A1EB0C014FEA74
:100E20001C471FFA8CFE0126200CB1FBF7F307FBD1
:100E3000131140EA01410EFB03F0884208D91CEB74
:100E4000010103F1FF3802D2884200F2CB80434611
:100E5000091AA4B2B1FBF7F007FB101144EA0144F0
:100E60000EFB00FEA64508D91CEB040400F1FF317F
:100E700002D2A64500F2BB800846A4EB0E0440EA6D
:100E800003409CE7C6F12007B34022FA07FC4CEA76
:100E9000030C20FA07F401FA06F31C43F9404FEA69
:100EA0001C4900FA06F3B1FBF9F8200C1FFA8CFE7E
:100EB00009FB181140EA014108FB0EF0884202FAD2
:100EC00006F20BD91CEB010108F1FF3A80F0888093
:100ED000884240F28580A8F102086144091AA4B250
:100EE000B1FBF9F009FB101144EA014100FB0EFED1
:100EF0008E4508D91CEB010100F1FF346CD28E4500
:100F00006AD90238614440EA0840A0FB0294A1EB90
:100F10000E01A142C846A64656D353D05DB1B3EBED
:100F2000080261EB0E0101FA07F722FA06F3F1401D
:100F30001F43C5E9007100263146BDE8F087C2F1C4
:100F40002003D8400CFA02FC21FA03F3914001433C
:100F50004FEA1C471FFA8CFEB3FBF7F007FB103675
:100F60000B0C43EA064300FB0EF69E4204FA02F421
:100F700008D91CEB030300F1FF382FD29E422DD974
:100F8000023863449B1B89B2B3FBF7F607FB1633A9
:100F900041EA034106FB0EF38B4208D91CEB010129
:100FA00006F1FF3816D28B4214D9023E6144C91AA9
:100FB00046EA004638E72E46284605E70646E3E6B9
:100FC0001846F8E64B45A9D2B9EB020864EB0C0EC3
:100FD0000138A3E74646EAE7204694E74046D1E7D2
:100FE000D0467BE7023B614432E7304609E7644480
:100FF000023842E7704700BF80B483B000AF0023DF
:10100000FB8002E0FB880133FB80FB88B3F57A6F3D
:10101000F8D900BF00BF0C37BD465DF8047B7047B0
:1010200080B582B000AF0346FB71FB79DB09DBB210
:1010300003F00103002B06D001224FF40051454874
:1010400002F052FD05E000224FF40051414802F049
:101050004BFDFB799B09DBB203F00103002B05D0AC
:10106000012240213C4802F03FFD04E000224021E3
:10107000394802F039FDFB795B09DBB203F001036B
:10108000002B05D001222021334802F02DFD04E081
:1010900000222021304802F027FDFB791B09DBB23A
:1010A00003F00103002B05D0012210212A4802F091
:1010B0001BFD04E000221021274802F015FDFB79FA
:1010C000DB08DBB203F00103002B05D0012208216D
:1010D000214802F009FD04E0002208211E4802F028
:1010E00003FDFB799B08DBB203F00103002B05D065
:1010F00001220421184802F0F7FC04E00022042138
:10110000154802F0F1FCFB795B08DBB203F0010348
:10111000002B05D0012202210F4802F0E5FC04E07B
:10112000002202210C4802F0DFFCFB7903F00103EE
:10113000002B05D001220121074802F0D5FC04E074
:1011400000220121044802F0CFFC00BF0837BD4651
:1011500080BD00BF000802400010024080B582B090
:1011600000AF0346FB71012220210C4802F0BCFCB9
:1011700001224FF40071094802F0B6FCFB791846D1
:10118000FFF74EFFFFF738FF00224FF400710348CE
:1011900002F0AAFC00BF0837BD4680BD0004024033
:1011A00080B582B000AF0346FB71002220210C48BD
:1011B00002F09AFC01224FF40071094802F094FCFD
:1011C000FB791846FFF72CFFFFF716FF00224FF4BC
:1011D0000071034802F088FC00BF0837BD4680BD9F
:1011E0000004024080B500AF282001F0DBFA302077
:1011F000FFF7D6FF012001F0D5FA3020FFF7D0FF2E
:10120000012001F0CFFA3020FFF7CAFF012001F0E2
:10121000C9FA3820FFF7C4FF012001F0C3FA082003
:10122000FFF7BEFF012001F0BDFA0120FFF7B8FF74
:10123000022001F0B7FA0620FFF7B2FF012001F00B
:10124000B1FA0F20FFF7ACFF3A20FFF7A9FF022009
:1012500001F0A8FA00BF80BD80B582B000AF0346A0
:101260000A46FB711346BB71BB79032B42D801A21E
:1012700052F823F0851200089B120008B9120008EA
:10128000D7120008FB7963F07F03DBB21846FFF743
:1012900087FF012001F086FA2CE0FB794033DBB2B6
:1012A0005BB263F07F035BB2DBB21846FFF778FFF7
:1012B000012001F077FA1DE0FB791433DBB25BB259
:1012C00063F07F035BB2DBB21846FFF769FF0120D2
:1012D00001F068FA0EE0FB795433DBB25BB263F0E5
:1012E0007F035BB2DBB21846FFF75AFF012001F023
:1012F00059FA00BF00BF0837BD4680BD80B584B035
:1013000000AF78600023FB7309E0FB7B7A6813442D
:101310001B781846FFF722FFFB7B0133FB73FB7B37
:101320007A6813441B78002BEFD100BF00BF103741
:10133000BD4680BD80B500AF0120FFF731FF00BF83
:1013400080BD000080B500AF00224FF480510B48F3
:1013500002F0CAFB00224FF40051084802F0C4FB1F
:1013600000224FF48041054802F0BEFB00224FF4FA
:101370000041024802F0B8FB00BF80BD00040240FB
:1013800080B500AF00224FF480510B4802F0ACFB57
:1013900000224FF40051084802F0A6FB00224FF44F
:1013A0008041054802F0A0FB01224FF400410248B1
:1013B00002F09AFB00BF80BD0004024080B500AF80
:1013C00000224FF480510B4802F08EFB00224FF4B4
:1013D0000051084802F088FB01224FF48041054883
:1013E00002F082FB00224FF40041024802F07CFB35
:1013F00000BF80BD0004024080B500AF00224FF462
:1014000080510B4802F070FB01224FF40051084854
:1014100002F06AFB00224FF48041054802F064FBB1
:1014200000224FF40041024802F05EFB00BF80BD85
:1014300000040240B0B582B000AF78607B681B7FCB
:10144000012B4CD10021786805F0F0F80346264ABC
:101450001360254B1B68002B41D00421786805F0F0
:10146000E5F807EE900AF8EE677A17EE900AFFF7B4
:101470006BF84FF000021D4BFFF7BEF802460B461B
:1014800014461D46184B1B6807EE903AF8EE677A33
:1014900017EE900AFFF758F802460B4620462946F9
:1014A000FFF7D4F902460B464FF000000F49FEF754
:1014B000EBFE02460B4610461946FFF795FB034626
:1014C0000B4A1360084B1B6807EE903AB8EE677A38
:1014D000DFED086AC6EE877A074BC3ED007A00BFDE
:1014E0000837BD46B0BD00BF0C04002000005940C5
:1014F00010040020A037A04C1404002080B582B056
:1015000000AF0346FB80FB88022B0CD1FFF71AFFCC
:10151000214B01221A70214B4FF000021A60204B20
:101520004FF000021A60FB88082B04D1FFF728FF58
:10153000194B03221A70FB88102B04D1FFF73EFFD2
:10154000154B04221A70FB88202B04D1FFF754FF9F
:10155000114B05221A70FB88402B0AD1002111483B
:1015600004F0E0FB04210F4804F09EFA0A4B062227
:101570001A70FB88802B0AD100210A4804F0FAFC7B
:101580000421084804F06CFB034B07221A7000BFCB
:101590000837BD4680BD00BF180400201404002099
:1015A00010040020C40300202DE9B04FA8B000AF04
:1015B00001F086F800F070FA00F06AFC00F0D6FA4C
:1015C00000F0CAFB09F060F800F074FB00F020FBAB
:1015D000FFF7B8FEFFF706FEC82001F0E3F8002190
:1015E0000020FFF739FEDA4B1B781A4607F10C038F
:1015F000D84918460AF014FC07F10C031846FFF707
:101600007DFE01210020FFF727FED34B1B68184603
:10161000FEF79AFF02460B4607F10C00CF490AF08D
:10162000FFFB07F10C031846FFF768FE02210020BC
:10163000FFF712FEC84B1B681846FEF785FF0246EF
:101640000B4607F10C00C6490AF0EAFB07F10C0350
:101650001846FFF753FE0023C7F88C300023C7F865
:10166000883040F6B833C7F88430D7F88430013B6F
:10167000C7F88030D7F8843000223B607A604FF0A2
:1016800000024FF0000379684B01396843EAD163E7
:1016900039684A01D7F8843000229A4693464FF0C1
:1016A00000024FF000034FEA4B1343EADA634FEABC
:1016B0004A12D7F884309B000733DB08DB00ADEB20
:1016C000030D6B4603339B089B00FB674FF4FA73D3
:1016D000BB67BB6F013B7B67BB6F0022984691469F
:1016E0004FF000024FF000034FEA491343EAD8637A
:1016F0004FEA4812BB6F00221C4615464FF000020D
:101700004FF000036B0143EAD4636201BB6F9B009F
:101710000733DB08DB00ADEB030D6B4603339B089F
:101720009B003B6704218F4801F070FB03218E482A
:1017300001F06CFB0023C7F8903017E08A4801F0F5
:1017400099F86421884801F09AF9874801F032FB42
:1017500001463B6FD7F8902043F82210824801F0F1
:101760005BF9D7F890300133C7F89030D7F8902064
:10177000BB6F9A42E2D304217A4801F047FB002371
:10178000C7F894300023C7F8983014E03B6FD7F8BF
:10179000982053F82230D7F894209A4206D23B6F13
:1017A000D7F8982053F82230C7F89430D7F89830FB
:1017B0000133C7F89830D7F89820BB6F9A42E5D329
:1017C000FFF7B8FD00210020FFF746FD604B1B78B6
:1017D0001A4607F10C03654918460AF021FB07F188
:1017E0000C031846FFF78AFD01210020FFF734FDA6
:1017F000594B1B681846FEF7A7FE02460B4607F139
:101800000C005B490AF00CFB07F10C031846FFF7CC
:1018100075FD02210020FFF71FFD564B1B6818467F
:10182000FEF792FE02460B4607F10C0052490AF001
:10183000F7FA07F10C031846FFF760FD03210020BB
:10184000FFF70AFDD7F8943007EE903AF8EE677A82
:1018500017EE900AFEF778FE39A3D3E90023FEF7CE
:10186000CBFE02460B461046194637A3D3E90023A8
:10187000FEF70CFD02460B4607F10C003F490AF04B
:10188000CFFA07F10C031846FFF738FD07F10C03F8
:101890003B4918460AF0C4FA07F10C031846FEF754
:1018A00097FC024607F10C031146184608F0AAFF00
:1018B00000F06CFFC7F88C000023A7F89C3017E0FD
:1018C000284800F0D7FF6421264801F0D8F8B7F87F
:1018D0009C40244801F06EFA0246FB6F43F8242036
:1018E000204801F099F8B7F89C300133A7F89C30F4
:1018F000B7F89C30D7F884209A42E1D800F046FF30
:10190000C7F88800D7F88820D7F88C30D21A07F1AA
:101910000C031C4918460AF083FA07F10C03184619
:10192000FEF756FC024607F10C031146184608F074
:1019300069FF0023A7F89E306BE000BFAFF3008083
:101940009E42AED4B320743F333333333333C33F7B
:101950001804002018FA0008140400202CFA0008CB
:101960003CFA0008EC0200203403002044FA00088E
:1019700050FA00081004002060FA000874FA000809
:1019800088FA0008B4FA0008B7F89E20FB6F53F8F5
:10199000223007EE903AF8EE677A17EE900AFEF7DB
:1019A000D3FD3BA3D3E90023FEF726FE02460B46F8
:1019B000104619464FF00002314BFEF747FF024632
:1019C0000B46104619462AA3D3E90023FEF75CFC18
:1019D00002460B461046194627A3D3E90023FEF71B
:1019E0000BFE02460B4607F10C0026490AF018FAD6
:1019F00007F10C031846FEF7EBFB024607F10C0358
:101A00001146184608F0FEFEB7F89E300133A7F8DD
:101A10009E30B7F89E30D7F884209A42B4D807F1A8
:101A20000C03194918460AF0FBF907F10C03184694
:101A3000FEF7CEFB024607F10C031146184608F0EC
:101A4000E1FE07F10C03114918460AF0E9F907F124
:101A50000C031846FEF7BCFB024607F10C031146C7
:101A6000184608F0CFFE642000F09CFE5EE600BF42
:101A70008EE9094B3CA0F33FEC51B81E853B9540E5
:101A80000000B040C4FA0008CCFA0008D0FA000800
:101A90006666666666660A4080B594B000AF07F178
:101AA000200330220021184609F032FB07F10C0315
:101AB00000221A605A609A60DA601A610023BB60E3
:101AC000284B1B6C274A43F080531364254B1B6C37
:101AD00003F08053BB60BB6800237B60224B1B6814
:101AE000214A43F4804313601F4B1B6803F4804377
:101AF0007B607B6801233B624FF480337B6202236F
:101B0000BB634FF48003FB6308233B64A8237B641F
:101B10000223BB640723FB6407F12003184603F08C
:101B2000ADFA0346002B01D000F0DCFA0F23FB6076
:101B300002233B6100237B614FF4A053BB614FF450
:101B40008053FB6107F10C030521184603F00EFDDD
:101B50000346002B01D000F0C5FA00BF5037BD4648
:101B600080BD00BF003802400070004080B584B0E6
:101B700000AF3B4600221A605A609A60DA60214B3F
:101B8000214A1A601F4B4FF480325A601D4B0022CD
:101B90009A601C4B00221A611A4B00221A76194BCC
:101BA000002283F82020174B0022DA62154B174AD7
:101BB0009A62144B0022DA60124B0122DA61114B57
:101BC000002283F830200F4B01225A610D4800F0AB
:101BD0000DFE0346002B01D000F084FA04233B6085
:101BE00001237B600023BB603B461946054801F09A
:101BF0000DF90346002B01D000F074FA00BF103736
:101C0000BD4680BDEC020020002001400100000F15
:101C100080B584B000AF3B4600221A605A609A60DB
:101C2000DA60214B214A1A601F4B4FF480325A6010
:101C30001D4B00229A601C4B00221A611A4B002295
:101C40001A76194B002283F82020174B0022DA6203
:101C5000154B174A9A62144B0022DA60124B01228C
:101C6000DA61114B002283F830200F4B01225A61B8
:101C70000D4800F0BBFD0346002B01D000F032FA06
:101C800003233B6001237B600023BB603B46194676
:101C9000054801F0BBF80346002B01D000F022FA02
:101CA00000BF1037BD4680BD340300200021014035
:101CB0000100000F80B584B000AF3B4600221A60DF
:101CC0005A609A60DA60214B214A1A601F4B4FF428
:101CD00080325A601D4B00229A601C4B00221A6110
:101CE0001A4B00221A76194B002283F82020174B3A
:101CF0000022DA62154B174A9A62144B0022DA600E
:101D0000124B0122DA61114B002283F830200F4B75
:101D100001225A610D4800F069FD0346002B01D0F5
:101D200000F0E0F901233B6001237B600023BB60EE
:101D30003B461946054801F069F80346002B01D0DF
:101D400000F0D0F900BF1037BD4680BD7C030020F5
:101D5000002201400100000F80B590B000AF07F1F4
:101D6000300300221A605A609A60DA6007F11C039F
:101D700000221A605A609A60DA601A6107F10C0357
:101D800000221A605A609A60DA603B1D00221A60D5
:101D90005A603E4B4FF080421A603C4B00225A6022
:101DA0003A4B00229A60394B4FF0FF32DA60374BE2
:101DB00000221A61354B00229A61344803F0CCFDB1
:101DC0000346002B01D000F08DF94FF480533B63A4
:101DD00007F1300319462D4804F01EFB0346002B83
:101DE00001D000F07FF9294803F005FE0346002BDF
:101DF00001D000F077F90423FB6150233B620023FC
:101E00007B620023BB620023FB6207F11C031946BF
:101E10001E4804F0C8FB0346002B01D000F062F915
:101E20000023FB6001233B6100237B610023BB6136
:101E300007F10C0300221946144804F051FA034636
:101E4000002B01D000F04EF90223FB6002233B611E
:101E500007F10C03042219460C4804F041FA03462A
:101E6000002B01D000F03EF900237B600023BB6013
:101E70003B1D1946054804F061FF0346002B01D0C5
:101E800000F030F900BF4037BD4680BDC4030020DC
:101E900080B58CB000AF07F11C0300221A605A60B5
:101EA0009A60DA601A610023BB61884B1B6B874A1A
:101EB00043F010031363854B1B6B03F01003BB61EE
:101EC000BB6900237B61814B1B6B804A43F0040399
:101ED00013637E4B1B6B03F004037B617B69002360
:101EE0003B617A4B1B6B794A43F080031363774B5A
:101EF0001B6B03F080033B613B690023FB60734B6A
:101F00001B6B724A43F001031363704B1B6B03F0AE
:101F10000103FB60FB680023BB606C4B1B6B6B4ACF
:101F200043F002031363694B1B6B03F00203BB60B6
:101F3000BB6800237B60654B1B6B644A43F008035E
:101F40001363624B1B6B03F008037B607B6800220A
:101F500045F27F315E4801F0C7FD00224FF4005189
:101F60005C4801F0C1FD01224FF470415A4801F074
:101F7000BBFD01224FF4F841584801F0B5FD0022A5
:101F80004FF44871544801F0AFFD41F27F33FB61DB
:101F900001233B6202237B620023BB6207F11C0327
:101FA00019464B4801F004FC4FF40053FB61012338
:101FB0003B6202237B620023BB6207F11C031946CC
:101FC000444801F0F5FB0423FB614FF404133B622A
:101FD00000237B6207F11C031946414801F0E8FB2E
:101FE0004FF48043FB6101233B6201237B620123A9
:101FF000BB6207F11C031946354801F0D9FB4FF4C9
:102000007043FB6101233B6200237B620223BB62BE
:1020100007F11C031946304801F0CAFB4FF4F8439E
:10202000FB6111233B6200237B620223BB6207F149
:102030001C031946294801F0BBFBFA23FB614FF44E
:1020400004133B6201237B6207F11C0319462348FA
:1020500001F0AEFB4FF44873FB6101233B620223A6
:102060007B620023BB6207F11C0319461A4801F08A
:102070009FFB00220021072001F0CBF9072001F08F
:10208000E4F900220021082001F0C3F9082001F042
:10209000DCF900220021092001F0BBF9092001F040
:1020A000D4F9002200210A2001F0B3F90A2001F03E
:1020B000CCF900220021172001F0ABF9172001F024
:1020C000C4F900BF3037BD4680BD00BF00380240B4
:1020D000001002400008024000040240000C0240D0
:1020E0000000024080B400AF72B600BFFEE70000FF
:1020F00080B582B000AF00237B601F4B5B6C1E4A33
:1021000043F4804353641C4B5B6C03F480437B605B
:102110007B6800233B60184B1B6C174A43F08053CD
:102120001364154B1B6C03F080533B603B6800222B
:102130000021012001F06DF9012001F086F9002253
:102140000021042001F065F9042001F07EF900224D
:102150000021052001F05DF9052001F076F900224B
:102160000021512001F055F9512001F06EF900BF16
:102170000837BD4680BD00BF0038024080B58EB034
:1021800000AF786007F1240300221A605A609A6059
:10219000DA601A617B681B68514A934230D1002390
:1021A0003B62504B5B6C4F4A43F4807353644D4B1E
:1021B0005B6C03F480733B623B6A0023FB61494B19
:1021C0001B6B484A43F001031363464B1B6B03F040
:1021D0000103FB61FB6970237B620323BB62002365
:1021E000FB6207F1240319463F4801F0E1FA00229F
:1021F0000021122001F00DF9122001F026F96AE009
:102200007B681B68394A934230D10023BB61354B50
:102210005B6C344A43F400735364324B5B6C03F4DD
:102220000073BB61BB6900237B612E4B1B6B2D4A86
:1022300043F0010313632B4B1B6B03F001037B6122
:102240007B6908237B620323BB620023FB6207F1E7
:1022500024031946244801F0ABFA00220021122081
:1022600001F0D7F8122001F0F0F834E07B681B6829
:102270001F4A93422FD100233B611A4B5B6C194AD2
:1022800043F480635364174B5B6C03F480633B61DE
:102290003B690023FB60134B1B6B124A43F00103A5
:1022A0001363104B1B6B03F00103FB60FB680223FD
:1022B0007B620323BB620023FB6207F12403194600
:1022C000094801F075FA00220021122001F0A1F85E
:1022D000122001F0BAF800BF3837BD4680BD00BFFC
:1022E000002001400038024000000240002101406F
:1022F0000022014080B58AB000AF786007F1140376
:1023000000221A605A609A60DA601A617B681B6862
:10231000B3F1804F33D100233B611B4B1B6C1A4A36
:1023200043F001031364184B1B6C03F001033B6182
:102330003B690023FB60144B1B6B134A43F0010302
:102340001363114B1B6B03F00103FB60FB6801235C
:102350007B610223BB610023FB6100233B620123FD
:102360007B6207F114031946084801F021FA0022A4
:1023700000211C2001F04DF81C2001F066F800BF80
:102380002837BD4680BD00BF003802400000024033
:1023900080B400AFFEE780B400AFFEE780B400AFCA
:1023A000FEE780B400AFFEE780B400AFFEE780B484
:1023B00000AF00BFBD465DF8047B704780B400AF3E
:1023C00000BFBD465DF8047B704780B400AF00BF1E
:1023D000BD465DF8047B704780B500AF00F0C2F9E0
:1023E00000BF80BD80B500AF02F02EFE00BF80BDF3
:1023F00080B500AF01F044F800BF80BD80B400AFED
:1024000000BFBD465DF8047B704780B500AF022079
:1024100001F084FB00BF80BD80B500AF042001F057
:102420007DFB00BF80BD80B500AF082001F076FBCA
:1024300000BF80BD80B500AF102001F06FFB00BF72
:1024400080BD000080B500AF054800F0A3FB054843
:1024500000F0A0FB044800F09DFB00BF80BD00BF62
:10246000EC020020340300207C03002080B500AF84
:10247000202001F053FB402001F050FB802001F0B0
:102480004DFB00BF80BD000080B500AF024803F0E7
:102490001FFE00BF80BD00BFC403002080B500AF99
:1024A000024801F0A3FC00BF80BD00BF241900203A
:1024B00080B400AF00BFBD465DF8047B704780B4B8
:1024C00000AF01231846BD465DF8047B704780B518
:1024D00082B000AF7860396008F0F0FD0346162244
:1024E0001A604FF0FF3318460837BD4680BD80B5EF
:1024F00082B000AF78604FF0FF317868FFF7E7FFF8
:10250000FEE780B586B000AFF860B9607A6000235E
:102510007B610AE0AFF300800146BB685A1CBA60D9
:10252000CAB21A707B6901337B617A697B689A420F
:10253000F0DB7B6818461837BD4680BD80B586B095
:1025400000AFF860B9607A6000237B6109E0BB6886
:102550005A1CBA601B781846AFF300807B690133C0
:102560007B617A697B689A42F1DB7B681846183791
:10257000BD4680BD80B483B000AF78604FF0FF33BC
:1025800018460C37BD465DF8047B704780B483B0B5
:1025900000AF786039603B684FF400525A60002306
:1025A00018460C37BD465DF8047B704780B483B095
:1025B00000AF7860012318460C37BD465DF8047BF8
:1025C000704780B485B000AFF860B9607A600023CE
:1025D00018461437BD465DF8047B704780B586B059
:1025E00000AF7860144A154BD31A7B617B693B615D
:1025F000134B1B68002B02D1114B124A1A60104B6F
:102600001A687B6813443A699A4207D208F056FD6B
:1026100003460C221A604FF0FF3309E0084B1B6899
:10262000FB60074B1A687B681344054A1360FB681C
:1026300018461837BD4680BD000002200004000087
:102640001C0400206020002080B400AF064BD3F8AB
:102650008830054A43F47003C2F8883000BFBD4695
:102660005DF8047B704700BF00ED00E0DFF834D078
:102670000D480E490E4A002302E0D458C4500433DA
:10268000C4188C42F9D30B4A0B4C002301E01360B1
:102690000432A242FBD3FFF7D7FF08F015FDFEF787
:1026A00083FF70470000022000000020D0020020BD
:1026B0000C000108D002002060200020FEE700008E
:1026C00080B500AF0E4B1B680D4A43F400731360D6
:1026D0000B4B1B680A4A43F480631360084B1B686A
:1026E000074A43F480731360032000F087FE0F2035
:1026F00000F008F8FFF7FCFC0023184680BD00BF7F
:10270000003C024080B582B000AF7860124B1A687E
:10271000124B1B7819464FF47A73B3FBF1F3B2FBFB
:10272000F3F3184600F09FFE0346002B01D001236F
:102730000EE07B680F2B0AD8002279684FF0FF303B
:1027400000F067FE064A7B681360002300E0012367
:1027500018460837BD4680BD000000200800002054
:102760000400002080B400AF064B1B781A46064BCD
:102770001B681344044A136000BFBD465DF8047B28
:10278000704700BF080000202004002080B400AF84
:10279000034B1B681846BD465DF8047B704700BFBD
:1027A0002004002080B584B000AF7860FFF7EEFF12
:1027B000B8607B68FB60FB68B3F1FF3F05D00A4B54
:1027C0001B781A46FB681344FB6000BFFFF7DEFF6F
:1027D0000246BB68D31AFA689A42F7D800BF00BF16
:1027E0001037BD4680BD00BF0800002080B584B012
:1027F00000AF78600023FB737B68002B01D10123BD
:1028000033E07B681B6C002B09D17868FFF7B6FCBE
:102810007B6800225A647B68002283F83C207B6836
:102820001B6C03F01003002B18D17B681B6C23F486
:10283000885323F0020343F002027B681A6478682D
:1028400000F006FC7B6800225A647B681B6C23F056
:10285000030343F001027B681A6401E00123FB7368
:102860007B68002283F83C20FB7B18461037BD466E
:1028700080BD000080B485B000AF78600023BB60ED
:102880007B6893F83C30012B01D10223B2E07B68D6
:10289000012283F83C207B681B689B6803F00103DE
:1028A000012B18D07B681B689A687B681B6842F014
:1028B00001029A60524B1B68524AA2FB03239A0CF6
:1028C00013465B001344BB6002E0BB68013BBB6086
:1028D000BB68002BF9D17B681B689B6803F0010380
:1028E000012B7AD17B681B6C23F4E06323F0010396
:1028F00043F480727B681A647B681B685B6803F42E
:102900008063002B07D07B681B6C23F4405343F497
:1029100080527B681A647B681B6C03F48053B3F5A8
:10292000805F06D17B685B6C23F006027B685A648B
:1029300002E07B6800225A647B68002283F83C2016
:10294000314BFB607B681B686FF022021A60FB68EA
:102950005B6803F01F03002B2AD17B681B682B4A9E
:10296000934215D07B681B68294A934205D1264BB8
:102970005B6803F01F03002B0AD07B681B68254AA5
:10298000934236D1204B5B6803F01003002B30D10B
:102990007B681B689B6803F04053002B29D17B6840
:1029A0001B689A687B681B6842F080429A6020E04E
:1029B0007B681B68154A93421BD17B681B689B6828
:1029C00003F04053002B14D17B681B689A687B6826
:1029D0001B6842F080429A600BE07B681B6C43F0FE
:1029E00010027B681A647B685B6C43F001027B68B1
:1029F0005A64002318461437BD465DF8047B7047BF
:102A00000000002083DE1B43002301400020014022
:102A1000002101400022014080B483B000AF786003
:102A20007B6893F83C30012B01D1022321E07B68C5
:102A3000012283F83C207B681B689A687B681B68CE
:102A400022F001029A607B681B689B6803F0010317
:102A5000002B09D17B681B6C23F4885323F00103FE
:102A600043F001027B681A647B68002283F83C20F3
:102A7000002318460C37BD465DF8047B704780B5CF
:102A800084B000AF786039600023FB607B681B680E
:102A90009B6803F48063B3F5806F13D17B681B6878
:102AA0009B6803F48073B3F5807F0BD17B681B6C4C
:102AB00043F020027B681A647B68002283F83C2084
:102AC000012363E0FFF762FEF86021E03B68B3F1A9
:102AD000FF3F1DD03B68002B07D0FFF757FE024693
:102AE000FB68D31A3A689A4212D27B681B681B684B
:102AF00003F00203022B0BD07B681B6C43F0040233
:102B00007B681A647B68002283F83C2003233DE045
:102B10007B681B681B6803F00203022BD6D17B681D
:102B20001B686FF012021A607B681B6C43F4007222
:102B30007B681A647B681B689B6803F04053002B1A
:102B400023D17B681B7E002B1FD17B681B68DB6A4F
:102B500003F47003002B06D07B681B689B6803F4AA
:102B60008063002B11D17B681B6C23F480727B681F
:102B70001A647B681B6C03F48053002B05D17B68BF
:102B80001B6C43F001027B681A640023184610375F
:102B9000BD4680BD80B586B000AF786000237B6104
:102BA00000233B617B681B681B68FB607B681B68BC
:102BB0005B68BB60FB6803F002037B61BB6803F0EA
:102BC00020033B617B69002B49D03B69002B46D039
:102BD0007B681B6C03F01003002B05D17B681B6C1A
:102BE00043F400727B681A647B681B689B6803F07F
:102BF0004053002B2BD17B681B7E002B27D17B6899
:102C00001B68DB6A03F47003002B06D07B681B682B
:102C10009B6803F48063002B19D17B681B685A689A
:102C20007B681B6822F020025A607B681B6C23F4CF
:102C300080727B681A647B681B6C03F48053002BE2
:102C400005D17B681B6C43F001027B681A647868CD
:102C500000F0BDF87B681B686FF012021A60FB6819
:102C600003F004037B61BB6803F080033B617B6975
:102C7000002B57D03B69002B54D07B681B6C03F0B2
:102C80001003002B05D17B681B6C43F400527B685A
:102C90001A647B681B689B6803F44013002B39D1CE
:102CA0007B681B689B6B03F44013002B06D07B688A
:102CB0001B689B6803F48063002B2BD17B681B6827
:102CC0005B6803F48063002B24D17B681B689B68DE
:102CD00003F04053002B1DD17B681B7E002B19D1C4
:102CE0007B681B685A687B681B6822F080025A6008
:102CF0007B681B6C23F480527B681A647B681B6CB6
:102D000003F48073002B05D17B681B6C43F0010238
:102D10007B681A64786800F097FA7B681B686FF02C
:102D20000C021A60FB6803F001037B61BB6803F0CF
:102D300040033B617B69002B17D03B69002B14D00B
:102D40007B681B681B6803F00103012B0DD17B68B6
:102D50001B6C43F480327B681A64786800F041F899
:102D60007B681B686FF001021A60FB6803F02003A8
:102D70007B61BB6803F080633B617B69002B15D0EE
:102D80003B69002B12D07B685B6C43F002027B68CE
:102D90005A647B681B686FF020021A60786800F044
:102DA0002AF87B681B686FF020021A6000BF183792
:102DB000BD4680BD80B483B000AF78607B681B687F
:102DC000DB6C18460C37BD465DF8047B704780B459
:102DD00083B000AF786000BF0C37BD465DF8047B60
:102DE000704780B483B000AF786000BF0C37BD4639
:102DF0005DF8047B704780B483B000AF786000BF9B
:102E00000C37BD465DF8047B7047000080B485B088
:102E100000AF786039600023BB607B6893F83C307A
:102E2000012B01D1022305E17B68012283F83C20BC
:102E30003B681B68092B25D97B681B68D9683B68F0
:102E40001B689BB21A4613465B0013441E3B0722C5
:102E500002FA03F3DA437B681B680A40DA607B6896
:102E60001B68D9683B689A683B681B689BB2184628
:102E700003465B0003441E3B9A407B681B680A4381
:102E8000DA6022E07B681B6819693B681B689BB2AB
:102E90001A4613465B001344072202FA03F3DA438F
:102EA0007B681B680A401A617B681B6819693B686C
:102EB0009A683B681B689BB2184603465B00034454
:102EC0009A407B681B680A431A613B685B68062B63
:102ED00024D87B681B68596B3B685A6813469B0073
:102EE0001344053B1F2202FA03F3DA437B681B6895
:102EF0000A405A637B681B68596B3B681B689BB22E
:102F000018463B685A6813469B001344053B00FA79
:102F100003F27B681B680A435A634CE03B685B68BA
:102F20000C2B24D87B681B68196B3B685A681346C6
:102F30009B001344233B1F2202FA03F3DA437B680E
:102F40001B680A401A637B681B68196B3B681B6827
:102F50009BB218463B685A6813469B001344233BB8
:102F600000FA03F27B681B680A431A6323E07B685C
:102F70001B68D96A3B685A6813469B001344413B5F
:102F80001F2202FA03F3DA437B681B680A40DA6205
:102F90007B681B68D96A3B681B689BB218463B6814
:102FA0005A6813469B001344413B00FA03F27B68C6
:102FB0001B680A43DA62224BFB607B681B68214A6C
:102FC000934209D13B681B68122B05D1FB685B68F3
:102FD00043F48002FB685A607B681B68194A93427D
:102FE00023D13B681B68102B03D03B681B68112B57
:102FF0001BD1FB685B6843F40002FB685A603B68C6
:103000001B68102B11D1104B1B68104AA2FB032325
:103010009A0C13469B0013445B00BB6002E0BB6844
:10302000013BBB60BB68002BF9D17B68002283F8B1
:103030003C20002318461437BD465DF8047B7047DA
:1030400000230140002001400000002083DE1B43DC
:1030500080B485B000AF7860794BFB60FB685B683B
:1030600023F44032FB685A60FB685A687B685B68EF
:103070001A43FB685A607B681B685A687B681B6848
:1030800022F480725A607B681B6859687B681B69F0
:103090001A027B681B680A435A607B681B685A687F
:1030A0007B681B6822F040725A607B681B68596815
:1030B0007B689A687B681B680A435A607B681B6858
:1030C0009A687B681B6822F400629A607B681B68C0
:1030D00099687B68DA687B681B680A439A607B683A
:1030E0009B6A584A934222D07B681B689A687B6827
:1030F0001B6822F070629A607B681B6899687B6825
:103100009A6A7B681B680A439A607B681B689A68A6
:103110007B681B6822F040529A607B681B68996844
:103120007B68DA6A7B681B680A439A600FE07B68F9
:103130001B689A687B681B6822F070629A607B68E3
:103140001B689A687B681B6822F040529A607B6813
:103150001B689A687B681B6822F002029A607B6891
:103160001B6899687B681B7E5A007B681B680A4352
:103170009A607B6893F82030002B1BD07B681B681B
:103180005A687B681B6842F400625A607B681B685F
:103190005A687B681B6822F460425A607B681B682F
:1031A00059687B685B6A013B5A037B681B680A436A
:1031B0005A6007E07B681B685A687B681B6822F4CA
:1031C00000625A607B681B68DA6A7B681B6822F4BD
:1031D0007002DA627B681B68D96A7B68DB69013B35
:1031E0001A057B681B680A43DA627B681B689A6869
:1031F0007B681B6822F400729A607B681B68996880
:103200007B6893F830305A027B681B680A439A60E7
:103210007B681B689A687B681B6822F480629A60EE
:103220007B681B6899687B685B699A027B681B688E
:103230000A439A6000BF1437BD465DF8047B7047AF
:10324000002301400100000F80B483B000AF78601C
:1032500000BF0C37BD465DF8047B704780B485B075
:1032600000AF78607B6803F00703FB600C4BDB6802
:10327000BB60BA684FF6FF031340BB60FB681A02DD
:10328000BB68134343F0BF6343F40033BB60044A9D
:10329000BB68D36000BF1437BD465DF8047B704740
:1032A00000ED00E080B400AF044BDB681B0A03F0C4
:1032B00007031846BD465DF8047B704700ED00E04B
:1032C00080B483B000AF0346FB7197F90730002B41
:1032D0000BDBFB7903F01F02074997F907305B0905
:1032E000012000FA02F241F8232000BF0C37BD464E
:1032F0005DF8047B704700BF00E100E080B483B05C
:1033000000AF03463960FB7197F90730002B0ADBE9
:103310003B68DAB20C4997F907301201D2B20B447C
:1033200083F800230AE03B68DAB20849FB7903F02E
:103330000F03043B1201D2B20B441A7600BF0C37C4
:10334000BD465DF8047B704700E100E000ED00E061
:1033500080B489B000AFF860B9607A60FB6803F0B0
:103360000703FB61FB69C3F10703042B28BF042398
:10337000BB61FB690433062B02D9FB69033B00E008
:1033800000237B614FF0FF32BB6902FA03F3DA439B
:10339000BB681A407B699A404FF0FF317B6901FAA4
:1033A00003F3D9437B680B40134318462437BD46CB
:1033B0005DF8047B7047000080B582B000AF786094
:1033C0007B68013BB3F1807F01D301230FE00A4A00
:1033D0007B68013B53600F214FF0FF30FFF78EFFFA
:1033E000054B00229A60044B07221A6000231846FE
:1033F0000837BD4680BD00BF10E000E080B582B058
:1034000000AF78607868FFF729FF00BF0837BD4636
:1034100080BD80B586B000AF0346B9607A60FB73AB
:1034200000237B61FFF73EFF78617A68B9687869AD
:10343000FFF78EFF024697F90F3011461846FFF747
:103440005DFF00BF1837BD4680BD80B582B000AFBC
:103450000346FB7197F907301846FFF731FF00BFAD
:103460000837BD4680BD80B582B000AF786078680F
:10347000FFF7A2FF034618460837BD4680BD00008F
:1034800080B582B000AF00237B604B4BDB6803F05C
:10349000F203002B20D0494B1B78DBB2012B07D164
:1034A000464BDB687B60454B4FF0FF32DA600BE048
:1034B000424B1B78DBB2022B03D1404B1B697B6074
:1034C00002E03E4B5B697B6000F08EF8786800F0AC
:1034D00081F83A4B00221A70374BDB6803F0010386
:1034E000002B4AD0344B0122DA60344B1B78DBB21C
:1034F000012B2DD1314B5B68013B304A53602F4B80
:103500005B68002B15D02D4BDB687B60786800F082
:1035100057F82A4BDB680133284AD360274BDB6816
:103520007B60264B1B7ADBB21946786800F0B2F854
:1035300023E04FF0FF337B60204A7B68D3601F4B52
:1035400000221A7000F0EEF8786800F039F814E004
:103550001A4B1B78DBB2022B07D100F0E3F8174BB4
:103560001B69184600F02CF804E0144B5B69184600
:1035700000F026F8114B00221A70104B1B78DBB2BA
:10358000002B14D10C4B1B690B4A23F0FF03136172
:10359000094B1B69084A23F080731361064B1B69B2
:1035A000054A23F000731361044B00221A7600BF12
:1035B0000837BD4680BD00BF003C02402404002007
:1035C00080B483B000AF786000BF0C37BD465DF8B3
:1035D000047B704780B483B000AF786000BF0C37C5
:1035E000BD465DF8047B704780B400AF274BDB68B5
:1035F00003F01003002B08D0254BDB6943F01003C8
:10360000234AD361214B1022DA60204BDB6803F0A0
:103610002003002B08D01E4BDB6943F008031C4A33
:10362000D3611A4B2022DA60184BDB6803F04003A9
:10363000002B08D0164BDB6943F00403144AD36116
:10364000124B4022DA60114BDB6803F08003002B41
:1036500008D00F4BDB6943F002030D4AD3610B4BDB
:103660008022DA60094BDB6803F00203002B08D0EC
:10367000074BDB6943F02003054AD361034B022269
:10368000DA6000BFBD465DF8047B7047003C024035
:103690002404002080B485B000AF78600B46FB7036
:1036A0000023FB60FB78002B02D10023FB6010E0BD
:1036B000FB78012B03D14FF48073FB6009E0FB78AA
:1036C000022B03D14FF40073FB6002E04FF4407310
:1036D000FB60134B1B69124A23F440731361104BB8
:1036E0001A690F49FB6813430B610D4B1B690C4AA8
:1036F00023F0F80313610A4B1A697B68DB0013435C
:10370000074A43F002031361054B1B69044A43F463
:103710008033136100BF1437BD465DF8047B7047EA
:10372000003C024080B400AF204B1B6803F40073E0
:10373000002B17D01D4B1B681C4A23F40073136029
:103740001A4B1B68194A43F400631360174B1B683C
:10375000164A23F400631360144B1B68134A43F4A6
:1037600000731360114B1B6803F48063002B17D0A8
:103770000E4B1B680D4A23F4806313600B4B1B68D0
:103780000A4A43F480531360084B1B68074A23F42A
:1037900080531360054B1B68044A43F48063136035
:1037A00000BFBD465DF8047B704700BF003C02408F
:1037B00080B489B000AF7860396000237B6100235A
:1037C0003B610023BB610023FB616BE10122FB69CC
:1037D00002FA03F37B613B681B687A6913403B6123
:1037E0003A697B699A4240F05A813B685B6803F012
:1037F0000303012B05D03B685B6803F00303022B36
:1038000030D17B689B68BB61FB695B00032202FAD5
:1038100003F3DB43BA691340BB613B68DA68FB69B9
:103820005B0002FA03F3BA691343BB617B68BA69B0
:103830009A607B685B68BB610122FB6902FA03F353
:10384000DB43BA691340BB613B685B681B0903F04B
:103850000102FB6902FA03F3BA691343BB617B6897
:10386000BA695A603B685B6803F00303032B17D007
:103870007B68DB68BB61FB695B00032202FA03F330
:10388000DB43BA691340BB613B689A68FB695B0024
:1038900002FA03F3BA691343BB617B68BA69DA6061
:1038A0003B685B6803F00303022B23D1FB69DA0852
:1038B0007B68083253F82230BB61FB6903F00703D1
:1038C0009B000F2202FA03F3DB43BA691340BB618A
:1038D0003B681A69FB6903F007039B0002FA03F3D4
:1038E000BA691343BB61FB69DA087B680832B969BE
:1038F00043F822107B681B68BB61FB695B000322F5
:1039000002FA03F3DB43BA691340BB613B685B68AF
:1039100003F00302FB695B0002FA03F3BA69134385
:10392000BB617B68BA691A603B685B6803F440332B
:10393000002B00F0B4800023FB60604B5B6C5F4A9F
:1039400043F4804353645D4B5B6C03F48043FB6042
:10395000FB685B4AFB699B08023352F82330BB616A
:10396000FB6903F003039B000F2202FA03F3DB431E
:10397000BA691340BB617B68524A93422BD07B6883
:10398000514A934225D07B68504A93421FD07B68AE
:103990004F4A934219D07B684E4A934213D07B68BA
:1039A0004D4A93420DD07B684C4A934207D07B68C6
:1039B0004B4A934201D107230EE008230CE0062373
:1039C0000AE0052308E0042306E0032304E00223C1
:1039D00002E0012300E00023FA6902F003029200F2
:1039E0009340BA691343BB613549FB699B080233B5
:1039F000BA6941F823203B4B9B68BB613B69DB43C1
:103A0000BA691340BB613B685B6803F48013002B09
:103A100003D0BA693B691343BB61324ABB69936007
:103A2000304BDB68BB613B69DB43BA691340BB6168
:103A30003B685B6803F40013002B03D0BA693B6951
:103A40001343BB61274ABB69D360264B5B68BB61EC
:103A50003B69DB43BA691340BB613B685B6803F4B5
:103A60000033002B03D0BA693B691343BB611D4A85
:103A7000BB6953601B4B1B68BB613B69DB43BA6985
:103A80001340BB613B685B6803F48033002B03D0B9
:103A9000BA693B691343BB61124ABB691360FB6996
:103AA0000133FB61FB690F2B7FF690AE00BF00BFB7
:103AB0002437BD465DF8047B704700BF00380240E4
:103AC00000380140000002400004024000080240AB
:103AD000000C024000100240001402400018024096
:103AE000001C0240003C014080B483B000AF78600D
:103AF0000B467B8013467B707B78002B03D07A8843
:103B00007B689A6103E07B881A047B689A6100BF36
:103B10000C37BD465DF8047B7047000080B582B06D
:103B200000AF0346FB80084B5A69FB881340002B0B
:103B300006D0054AFB885361FB881846FDF7DEFC7A
:103B400000BF0837BD4680BD003C0140F0B58FB0D6
:103B50000AAF78607B68002B01D101230FE17B68FD
:103B60001B68BB607B6893F8BD34DBB2002B06D1C9
:103B70007B68002283F8BC24786806F08BFF7B68A2
:103B8000032283F8BD24BB68DB6B03F48073002B36
:103B900002D17B6800221A617B681B68184603F01B
:103BA00072FA7B681B683B607E686D4606F1100404
:103BB0000FCC0FC50FCC0FC594E8030085E80300B8
:103BC000331D0ECB386803F049F90346002B05D0AE
:103BD0007B68022283F8BD240123D0E07B681B6848
:103BE0000021184603F060FA0023FB734AE0FA7BD9
:103BF00079681346DB0013449B000B443D330122DC
:103C00001A70FA7B79681346DB0013449B000B445F
:103C10003C33FA7B1A70FA7BFB7B98B279681346C7
:103C2000DB0013449B000B44443302461A80FA7BAA
:103C300079681346DB0013449B000B444033002299
:103C40001A70FA7B79681346DB0013449B000B441F
:103C5000483300221A60FA7B79681346DB0013446C
:103C60009B000B444C3300221A60FA7B79681346A0
:103C7000DB0013449B000B44543300221A60FB7B8F
:103C80000133FB73FA7B7B685B689A42AFD30023F6
:103C9000FB7344E0FA7B79681346DB0013449B0016
:103CA0000B4403F27D2300221A70FA7B79681346D5
:103CB000DB0013449B000B4403F51F73FA7B1A705F
:103CC000FA7B79681346DB0013449B000B4403F531
:103CD000207300221A70FA7B79681346DB001344C4
:103CE0009B000B4403F5227300221A60FA7B79686B
:103CF0001346DB0013449B000B4403F5237300229F
:103D00001A60FA7B79681346DB0013449B000B446E
:103D100003F5257300221A60FB7B0133FB73FA7BEA
:103D20007B685B689A42B5D37B681B683B607E68A2
:103D30006D4606F110040FCC0FC50FCC0FC594E8EB
:103D4000030085E80300331D0ECB386803F0F8F953
:103D50000346002B05D07B68022283F8BD24012393
:103D60000DE07B68002283F838207B68012283F80D
:103D7000BD247B681B68184604F047FB00231846E7
:103D80001437BD46F0BD80B584B000AF78607B6865
:103D90001B68FB607B6893F8BC34012B01D10223C4
:103DA00020E07B68012283F8BC247B689B6A012B9E
:103DB00009D17B689B69012B05D0FB689B6B43F4A1
:103DC0008032FB689A637B681B68184603F04AF9E7
:103DD0007B681B68184604F0F7FA7B68002283F8BA
:103DE000BC24002318461037BD4680BD90B58DB069
:103DF00000AF78607B681B683B623B6AFB617B6855
:103E00001B68184604F0B5FB0346002B40F08A847B
:103E10007B681B68184604F019FB0346002B00F072
:103E20008084FB6903F500639B681B0AC3F30D02E2
:103E30007B68C3F8FC247B681B68184604F006FB0B
:103E4000034603F00203022B07D17B681B685A6903
:103E50007B681B6802F002025A617B681B68184687
:103E600004F0F4FA034603F01003102B61D17B68D1
:103E70001B689A697B681B6822F010029A613B6A92
:103E80001B6ABB61BB6903F00F021346DB001344DE
:103E90009B0003F51E737A68134404337B61BB698E
:103EA0005B0C03F00F03022B24D1BA6947F6F073C1
:103EB0001340002B35D07B691969BB691B099BB284
:103EC000C3F30A039BB21A46386A04F02BF97B69E4
:103ED0001A69BB691B09C3F30A031A447B691A6197
:103EE0007B691A6ABB691B09C3F30A031A447B691D
:103EF0001A6216E0BB695B0C03F00F03062B10D1AE
:103F00007B6803F2C44308221946386A04F00AF9B0
:103F10007B691A6ABB691B09C3F30A031A447B69EC
:103F20001A627B681B689A697B681B6842F0100202
:103F30009A617B681B68184604F088FA034603F40C
:103F40000023B3F5002F40F0A78000237B627B683D
:103F50001B68184604F08DFAB86299E0BB6A03F05A
:103F60000103002B00F08E807B681B687A6AD2B256
:103F70001146184604F0B1FA38613B6903F00103B9
:103F8000002B0CD07B6A5A01FB69134403F53063A4
:103F90001A4601239360796A786800F0C3FE3B6992
:103FA00003F00803002B0CD07B6A5A01FB69134411
:103FB00003F530631A4608239360796A786800F045
:103FC00099FF3B6903F01003002B08D07B6A5A016C
:103FD000FB69134403F530631A46102393603B6971
:103FE00003F00203002B30D03B6A5B6903F08003CF
:103FF000802B09D1FB6903F500635B68FA6902F560
:10400000006243F4806353607A6A1346DB00134412
:104010009B0003F51E737A68134404337B617B694C
:10402000DB78012B08D17B690022DA707B6ADBB276
:104030001946786806F034FE7B6A5A01FB6913441E
:1040400003F530631A46022393603B6903F02003B3
:10405000002B08D07B6A5A01FB69134403F53063D7
:104060001A46202393603B6903F40053002B09D0C8
:104070007B6A5A01FB69134403F530631A464FF417
:10408000005393607B6A01337B62BB6A5B08BB624F
:10409000BB6A002B7FF462AF7B681B68184604F094
:1040A000D5F9034603F48023B3F5802F40F0DB807D
:1040B0007B681B68184604F0F6F9B86200237B623F
:1040C000CDE0BB6A03F00103002B00F0C2807B68E7
:1040D0001B687A6AD2B21146184604F01CFA38619D
:1040E0003B6903F00103002B57D07B6A03F00F03F9
:1040F000012202FA03F3FB60FB6903F500635A6BCC
:10410000FB68DB43F96901F5006113404B637B6A8F
:104110005A01FB69134403F510631A4601239360A7
:104120007B681B69012B32D179687A6A1346DB0000
:1041300013449B000B444C33196878687A6A134621
:10414000DB0013449B00034448331B681944786820
:104150007A6A1346DB0013449B0003444C33196016
:104160007B6A002B13D179687A6A1346DB0013440B
:104170009B000B4454331B68002B08D17B681868E4
:104180007B6803F2C4431A46012104F023FA7B6AD8
:10419000DBB21946786806F0FEFC3B6903F00803C1
:1041A000002B08D07B6A5A01FB69134403F51063A6
:1041B0001A46082393603B6903F01003002B08D0D4
:1041C0007B6A5A01FB69134403F510631A461023F6
:1041D00093603B6903F04003002B08D07B6A5A01CF
:1041E000FB69134403F510631A46402393603B694F
:1041F00003F00203002B23D0796A386A03F004F934
:104200007A6A1346DB0013449B0038337A68134400
:1042100004337B617B69DB78012B08D17B69002249
:10422000DA707B6ADBB21946786806F04BFD7B6A70
:104230005A01FB69134403F510631A460223936085
:104240003B6903F08003002B03D0796A786800F0A3
:10425000DBFC7B6A01337B62BB6A5B08BB62BB6AC7
:10426000002B7FF42EAF7B681B68184604F0EEF835
:10427000034603F00043B3F1004F22D1FB6903F57D
:1042800000635B68FA6902F5006223F00103536082
:104290007B6893F8F434012B08D17B68002283F803
:1042A000F4240021786800F0C3FE02E0786806F08C
:1042B000E9FC7B681B685A697B681B6802F0004256
:1042C0005A617B681B68184604F0C0F8034603F483
:1042D0000063B3F5006F12D1FB6903F500639B68BF
:1042E00003F00103012B02D1786806F0A5FC7B687E
:1042F0001B685A697B681B6802F400625A617B681C
:104300001B68184604F0A2F8034603F48053B3F583
:10431000805F40F0B780FB6903F500635B68FA6972
:1043200002F5006223F0010353607B681B681021D3
:10433000184603F069F80023FB6246E0FB6A5A0165
:10434000FB69134403F510631A464FF67F339360FD
:10435000FB6A5A01FB69134403F510631B68FA6A90
:104360005101FA690A4402F5106223F40013136044
:10437000FB6A5A01FB69134403F530631A464FF692
:104380007F339360FB6A5A01FB69134403F5306382
:104390001B68FA6A5101FA690A4402F5306223F493
:1043A00000131360FB6A5A01FB69134403F5306381
:1043B0001B68FA6A5101FA690A4402F5306243F057
:1043C00000631360FB6A0133FB627B685B68FA6A17
:1043D0009A42B3D3FB6903F50063DB69FA6902F51E
:1043E000006243F00113D3617B681B6B002B16D076
:1043F000FB6903F50063D3F88430FA6902F50062C3
:1044000043F00B03C2F88430FB6903F500635B6C77
:10441000FA6902F5006243F00B03536415E0FB698F
:1044200003F500635B69FA6902F5006243F4005327
:1044300043F02B035361FB6903F500631B69FA69C1
:1044400002F5006243F00B031361FB6903F500639F
:104450001B68FA6902F5006223F4FE6313607B684F
:1044600018687B681B69D9B27B6803F2C4431A469B
:1044700004F0B0F87B681B685A697B681B6802F41B
:1044800080525A617B681B68184603F0DFFF0346C1
:1044900003F40053B3F5005F24D17B681B68184612
:1044A00004F075F87B681B68184603F02AF8034689
:1044B0001A467B68DA607B681C6801F041FA0146A5
:1044C0007B68DB68DBB21A46204602F029FD78687B
:1044D00006F089FB7B681B685A697B681B6802F4DD
:1044E00000525A617B681B68184603F0AFFF034611
:1044F00003F00803082B0AD1786806F066FB7B6896
:104500001B685A697B681B6802F008025A617B6865
:104510001B68184603F09AFF034603F08003802BC4
:1045200022D13B6A9B6923F080023B6A9A61012396
:104530007B6214E079687A6A1346DB0013449B00BF
:104540000B4403F27F231B78012B05D17B6ADBB27E
:104550001946786800F027FB7B6A01337B627B6831
:104560005B687A6A9A42E5D37B681B68184603F059
:104570006DFF034603F48013B3F5801F3BD1012385
:104580007B622BE07B6A5A01FB69134403F51063DD
:104590001B68BB6179687A6A1346DB0013449B0091
:1045A0000B4440331B78012B15D1BB69002B12DA69
:1045B00079687A6A1346DB0013449B000B443F334F
:1045C00001221A707B6ADBB263F07F03DBB219460B
:1045D000786800F0E8FA7B6A01337B627B685B688D
:1045E0007A6A9A42CED37B681B685A697B681B68DB
:1045F00002F480125A617B681B68184603F026FF9C
:10460000034603F40013B3F5001F55D101237B6269
:1046100045E07B6A5A01FB69134403F530631B686C
:10462000BB6179687A6A1346DB0013449B000B4434
:1046300003F520731B78012B2ED1BB69002B2BDADD
:10464000BB6903F480327B68D3F8FC3403F00103C8
:104650009A4221D179687A6A1346DB0013449B00A1
:104660000B4403F27F2301221A703B6A9B6943F0DB
:1046700080023B6A9A613B6A5B6903F08003002B0E
:104680000AD1FB6903F500635B68FA6902F5006211
:1046900043F40073536007E07B6A01337B627B68FD
:1046A0005B687A6A9A42B4D37B681B685A697B68F4
:1046B0001B6802F400125A617B681B68184603F0FD
:1046C000C5FE034603F08043B3F1804F0AD17868FA
:1046D00006F00AFB7B681B685A697B681B6802F05E
:1046E00080425A617B681B68184603F0AFFE0346A0
:1046F00003F00403042B15D17B681B685B68BB6166
:10470000BB6903F00403002B02D0786806F0FAFAC4
:104710007B681B6859687B681B68BA690A435A60E2
:1047200000E000BF3437BD4690BD80B582B000AF19
:1047300078600B46FB707B6893F8BC34012B01D189
:10474000022313E07B68012283F8BC247B68FA789B
:1047500083F838207B681B68FA781146184603F006
:104760000DFE7B68002283F8BC240023184608371E
:10477000BD4680BD80B584B000AF78600846114664
:104780001A460346FB700B463B801346BB70002362
:10479000FB7297F90330002B0FDAFB7803F00F025E
:1047A0001346DB0013449B0038337A681344043308
:1047B000FB60FB6801225A700FE0FB7803F00F02E8
:1047C0001346DB0013449B0003F51E737A68134401
:1047D0000433FB60FB6800225A70FB7803F00F0380
:1047E000DAB2FB681A703A88FB68DA60FB68BA785C
:1047F0001A71FB685B78002B04D0FB681B789AB2B7
:10480000FB681A81BB78022B02D1FB6800225A7127
:104810007B6893F8BC34012B01D102230EE07B6846
:10482000012283F8BC247B681B68F968184602F0F3
:104830008DFE7B68002283F8BC24FB7A1846103773
:10484000BD4680BD80B584B000AF78600B46FB707C
:1048500097F90330002B0FDAFB7803F00F021346B1
:10486000DB0013449B0038337A6813440433FB6045
:10487000FB6801225A700FE0FB7803F00F02134629
:10488000DB0013449B0003F51E737A681344043362
:10489000FB60FB6800225A70FB7803F00F03DAB26A
:1048A000FB681A707B6893F8BC34012B01D102239A
:1048B0000EE07B68012283F8BC247B681B68F968E2
:1048C000184602F0CBFE7B68002283F8BC2400234C
:1048D00018461037BD4680BD80B586B000AFF86081
:1048E0007A603B600B46FB72FB7A03F00F021346C3
:1048F000DB0013449B0003F51E73FA681344043372
:104900007B617B697A681A617B693A689A617B6925
:1049100000221A627B6900225A70FB7A03F00F03AF
:10492000DAB27B691A70FB681B69012B02D17A68C5
:104930007B695A61FB7A03F00F03002B09D1FB68F6
:104940001868FB681B69DBB21A46796903F0AAF99B
:1049500008E0FB681868FB681B69DBB21A467969D6
:1049600002F058FF002318461837BD4680BD80B4BA
:1049700083B000AF78600B46FB70FB7803F00F024A
:1049800079681346DB0013449B000B4403F527733F
:104990001B6818460C37BD465DF8047B704780B530
:1049A00086B000AFF8607A603B600B46FB72FB7A22
:1049B00003F00F021346DB0013449B003833FA6800
:1049C000134404337B617B697A681A617B693A68B6
:1049D0009A617B6900221A627B6901225A70FB7A14
:1049E00003F00F03DAB27B691A70FB681B69012BB5
:1049F00002D17A687B695A61FB7A03F00F03002BBE
:104A000009D1FB681868FB681B69DBB21A46796933
:104A100003F048F908E0FB681868FB681B69DBB223
:104A20001A46796902F0F6FE002318461837BD468B
:104A300080BD80B584B000AF78600B46FB70FB781A
:104A400003F00F027B685B689A4201D9012350E0B2
:104A500097F90330002B0FDAFB7803F00F021346AF
:104A6000DB0013449B0038337A6813440433FB6043
:104A7000FB6801225A700DE0FA781346DB001344FC
:104A80009B0003F51E737A6813440433FB60FB68D4
:104A900000225A70FB6801229A70FB7803F00F0322
:104AA000DAB2FB681A707B6893F8BC34012B01D131
:104AB00002231EE07B68012283F8BC247B681B680C
:104AC000F968184603F086FBFB7803F00F03002B10
:104AD0000AD17B6818687B681B69D9B27B6803F2CE
:104AE000C4431A4603F076FD7B68002283F8BC2499
:104AF000002318461037BD4680BD80B584B000AF96
:104B000078600B46FB70FB7803F00F027B685B68F4
:104B10009A4201D9012342E097F90330002B0FDAC2
:104B2000FB7803F00F021346DB0013449B0038337D
:104B30007A6813440433FB60FB6801225A700FE06B
:104B4000FB7803F00F021346DB0013449B0003F5D0
:104B50001E737A6813440433FB60FB6800225A70AA
:104B6000FB6800229A70FB7803F00F03DAB2FB684F
:104B70001A707B6893F8BC34012B01D102230EE03C
:104B80007B68012283F8BC247B681B68F96818469F
:104B900003F08EFB7B68002283F8BC2400231846B8
:104BA0001037BD4680BD80B584B000AF78600B463D
:104BB000FB7097F90330002B0CDAFB7803F00F023F
:104BC0001346DB0013449B0038337A6813440433E4
:104BD000FB600CE0FB7803F00F021346DB0013448C
:104BE0009B0003F51E737A6813440433FB607B68F3
:104BF0001B68F968184603F0ADF90346FB72FB7AAF
:104C000018461037BD4680BD80B58AB002AF7860C7
:104C100039607B681B687B617B693B613A6813463E
:104C2000DB0013449B0038337A6813440433FB6081
:104C3000FB681A6AFB689B699A4201D901236CE000
:104C4000FB689A69FB681B6AD31AFB61FB68DB6827
:104C5000FA699A4202D9FB68DB68FB61FB6903339E
:104C60009B08BB612BE0FB689A69FB681B6AD31A3F
:104C7000FB61FB68DB68FA699A4202D9FB68DB6872
:104C8000FB61FB6903339B08BB61FB6819693B68E7
:104C9000DAB2FB6998B27B681B69DBB2009303460A
:104CA000786903F001FAFB681A69FB691A44FB682A
:104CB0001A61FB681A6AFB691A44FB681A623B684E
:104CC0005A013B69134403F510639B699BB2BA69AF
:104CD0009A4209D8FB681A6AFB689B699A4203D218
:104CE000FB689B69002BBED1FB689A69FB681B6A55
:104CF0009A4211D83B6803F00F03012202FA03F332
:104D0000BB603B6903F500635A6BBB68DB433969E1
:104D100001F5006113404B63002318462037BD4660
:104D200080BD000080B588B000AF786039607B68D6
:104D30001B68FB61FB69BB61FB693C3304331B6887
:104D40007B613B685A01BB69134403F530639B6880
:104D50003B617B681B69012B7BD13B6903F0080336
:104D6000002B15D07B69614A934240F2B9803B69C0
:104D700003F40043002B00F0B3803B685A01BB6989
:104D8000134403F530631A464FF400439360A7E0E1
:104D90003B6903F02003002B09D03B685A01BB6933
:104DA000134403F530631A462023936098E03B696F
:104DB00003F02803002B40F093807B694B4A934219
:104DC0000FD93B6903F40043002B0AD03B685A011A
:104DD000BB69134403F530631A464FF400439360F4
:104DE0007EE03A681346DB0013449B0003F51E7314
:104DF0007A6813440433FB60FB68DA693B68590145
:104E0000BB690B4403F530631B69C3F31203D21A69
:104E1000FB681A623B68002B14D1FB689B69002B6E
:104E200009D17B6818687B6803F2C4431A460121E4
:104E300003F0D0FB06E0FB681A69FB681B6A1A44A2
:104E4000FB681A613B68DBB21946786805F088FE9A
:104E500046E07B69264A934224D13B6903F4004330
:104E6000002B0AD03B685A01BB69134403F5306339
:104E70001A464FF40043936032E03B6903F020038D
:104E8000002B08D03B685A01BB69134403F530631B
:104E90001A46202393603B68DBB21946786805F018
:104EA0005FFE1DE03B68002B14D179683A68134619
:104EB000DB0013449B000B4403F525731B68002B98
:104EC00008D17B6818687B6803F2C4431A46002146
:104ED00003F080FB3B68DBB21946786805F040FEC2
:104EE000002318462037BD4680BD00BF0A30544F0E
:104EF0000A31544F80B586B000AF786039607B6866
:104F00001B687B617B693B617B693C3304331B68B5
:104F1000FB603B685A013B69134403F530639B68AF
:104F2000BB60FB68154A93420ED9BB6803F400438B
:104F3000002B09D03B685A013B69134403F53063E9
:104F40001A464FF400439360786805F0F7FDFB685C
:104F50000A4A93420CD97B681B69012B08D17B68F4
:104F600018687B6803F2C4431A46012103F032FB40
:104F7000002318461837BD4680BD00BF0A30544F85
:104F800080B485B000AF78600B46FB7013463B8061
:104F90007B681B685B6ABB60FB78002B07D13B8892
:104FA00019047B681B68BA680A439A6228E07B6828
:104FB0001B689B6A1B0CBA681344BB600023FB731D
:104FC0000DE07B681A68FB7B40339B0013445B68F1
:104FD0001B0CBA681344BB60FB7B0133FB73FA7B89
:104FE000FB78013B9A42ECD33B8818047B68196834
:104FF000FB78013BBA68024340339B000B445A6084
:10500000002318461437BD465DF8047B704780B412
:1050100083B000AF78600B467B807B681B687A8822
:105020005A62002318460C37BD465DF8047B704772
:1050300080B483B000AF78600B46FB7000BF0C37C4
:10504000BD465DF8047B704780B500AF064B5B69D9
:1050500003F48033002B05D000F008F8024B4FF426
:1050600080325A6100BF80BD003C014080B400AF77
:1050700000BFBD465DF8047B7047000080B586B078
:1050800000AF78607B68002B01D1012367E27B6869
:105090001B6803F00103002B75D0884B9B6803F05D
:1050A0000C03042B0CD0854B9B6803F00C03082BDE
:1050B00012D1824B5B6803F48003B3F5800F0BD1F0
:1050C0007E4B1B6803F40033002B5BD07B685B686E
:1050D000002B57D1012342E27B685B68B3F5803F28
:1050E00006D1764B1B68754A43F4803313601DE08C
:1050F0007B685B68B3F5A02F0CD1704B1B686F4ABF
:1051000043F4802313606D4B1B686C4A43F4803377
:1051100013600BE0694B1B68684A23F4803313600B
:10512000664B1B68654A23F4802313607B685B68C9
:10513000002B13D0FDF72AFB386108E0FDF726FBB2
:1051400002463B69D31A642B01D9032307E25B4B68
:105150001B6803F40033002BF0D014E0FDF716FBBE
:10516000386108E0FDF712FB02463B69D31A642B55
:1051700001D90323F3E1514B1B6803F40033002BE7
:10518000F0D100E000BF7B681B6803F00203002B36
:1051900063D04A4B9B6803F00C03002B0BD0474BAA
:1051A0009B6803F00C03082B1CD1444B5B6803F491
:1051B0008003002B16D1414B1B6803F00203002B28
:1051C00005D07B68DB68012B01D00123C7E13B4B95
:1051D0001B6823F0F8027B681B69DB003749134327
:1051E0000B603AE07B68DB68002B20D0344B012257
:1051F0001A60FDF7CBFA386108E0FDF7C7FA0246FE
:105200003B69D31A022B01D90323A8E12B4B1B685E
:1052100003F00203002BF0D0284B1B6823F0F802A8
:105220007B681B69DB00254913430B6015E0244BA9
:1052300000221A60FDF7AAFA386108E0FDF7A6FA25
:1052400002463B69D31A022B01D9032387E11B4B8A
:105250001B6803F00203002BF0D17B681B6803F08E
:105260000803002B36D07B685B69002B16D0154BEA
:1052700001221A60FDF78AFA386108E0FDF786FA24
:1052800002463B69D31A022B01D9032367E10B4B7A
:105290005B6F03F00203002BF0D01BE0094B0022F0
:1052A0001A60FDF773FA38610EE0FDF76FFA0246F7
:1052B0003B69D31A022B07D9032350E1003802407F
:1052C00000004742800E4742884B5B6F03F00203A9
:1052D000002BEAD17B681B6803F00403002B00F06D
:1052E00097800023FB75814B1B6C03F08053002BD0
:1052F0000FD10023BB607D4B1B6C7C4A43F0805375
:1053000013647A4B1B6C03F08053BB60BB680123B2
:10531000FB75774B1B6803F48073002B18D1744B1B
:105320001B68734A43F480731360FDF72FFA3861EA
:1053300008E0FDF72BFA02463B69D31A022B01D98C
:1053400003230CE16A4B1B6803F48073002BF0D03D
:105350007B689B68012B06D1644B1B6F634A43F04B
:10536000010313671CE07B689B68052B0CD15F4B26
:105370001B6F5E4A43F0040313675C4B1B6F5B4A71
:1053800043F0010313670BE0584B1B6F574A23F0A0
:1053900001031367554B1B6F544A23F00403136733
:1053A0007B689B68002B15D0FDF7F0F938610AE0A7
:1053B000FDF7ECF902463B69D31A41F28832934279
:1053C00001D90323CBE0494B1B6F03F00203002BF1
:1053D000EED014E0FDF7DAF938610AE0FDF7D6F90E
:1053E00002463B69D31A41F28832934201D9032322
:1053F000B5E03E4B1B6F03F00203002BEED1FB7DAB
:10540000012B05D1394B1B6C384A23F080531364B0
:105410007B689B69002B00F0A180344B9B6803F0F4
:105420000C03082B5CD07B689B69022B41D1314B6C
:1054300000221A60FDF7AAF9386108E0FDF7A6F925
:1054400002463B69D31A022B01D9032387E0274B7D
:105450001B6803F00073002BF0D17B68DA697B686E
:105460001B6A1A437B685B6A9B011A437B689B6AD1
:105470005B08013B1B041A437B68DB6A1B061B4964
:1054800013434B601B4B01221A60FDF77FF9386113
:1054900008E0FDF77BF902463B69D31A022B01D9DC
:1054A00003235CE0114B1B6803F00073002BF0D06A
:1054B00054E0104B00221A60FDF768F9386108E0EB
:1054C000FDF764F902463B69D31A022B01D9032385
:1054D00045E0064B1B6803F00073002BF0D13DE064
:1054E0007B689B69012B07D1012338E0003802401B
:1054F00000700040600047421B4B5B68FB607B68AC
:105500009B69012B28D0FB6803F480027B68DB6970
:105510009A4221D1FB6803F03F027B681B6A9A42E2
:105520001AD1FA6847F6C07313407A68526A92013A
:10553000934211D1FB6803F440327B689B6A5B089D
:10554000013B1B049A4207D1FB6803F070627B6841
:10555000DB6A1B069A4201D0012300E000231846B3
:105560001837BD4680BD00BF0038024080B584B00A
:1055700000AF786039607B68002B01D10123CCE05B
:10558000684B1B6803F007033A689A420CD9654BD5
:105590003A68D2B21A70634B1B6803F007033A688B
:1055A0009A4201D00123B8E07B681B6803F0020334
:1055B000002B20D07B681B6803F00403002B05D070
:1055C000594B9B68584A43F4E05393607B681B68CF
:1055D00003F00803002B05D0534B9B68524A43F459
:1055E00060439360504B9B6823F0F0027B689B689C
:1055F0004D4913438B607B681B6803F00103002B4C
:1056000044D07B685B68012B07D1474B1B6803F4D0
:105610000033002B19D101237FE07B685B68022BEC
:1056200003D07B685B68032B07D13F4B1B6803F0FB
:105630000073002B09D101236FE03B4B1B6803F083
:105640000203002B01D1012367E0374B9B6823F055
:1056500003027B685B68344913438B60FDF796F85F
:10566000F8600AE0FDF792F80246FB68D31A41F2AF
:105670008832934201D903234FE02B4B9B6803F000
:105680000C027B685B689B009A42EBD1254B1B6840
:1056900003F007033A689A420CD2224B3A68D2B21E
:1056A0001A70204B1B6803F007033A689A4201D036
:1056B000012332E07B681B6803F00403002B08D051
:1056C000194B9B6823F4E0527B68DB68164913434F
:1056D0008B607B681B6803F00803002B09D0124B1A
:1056E0009B6823F460427B681B69DB000E4913430F
:1056F0008B6000F021F802460B4B9B681B0903F0FE
:105700000F030A49CB5C22FA03F3094A1360094BE1
:105710001B681846FCF7F6FF002318461037BD46F5
:1057200080BD00BF003C02400038024044FB00083E
:1057300000000020040000202DE9B04F94B000AF1D
:1057400000237B640023FB6400233B640023BB64D1
:10575000794B9B6803F00C03082B0DD0082B00F24B
:10576000E180002B02D0042B03D0DBE0734BBB6441
:10577000DBE0724BBB64D8E06F4B5B6803F03F0328
:105780007B646D4B5B6803F48003002B63D06A4B32
:105790005B689B090022BB63FA63BB6BC3F308031E
:1057A0003B6300237B63D7E90C4522462B464FF031
:1057B00000004FF00001590141EAD2615001024658
:1057C0000B462146511A3961294663EB01037B617F
:1057D0004FF000024FF00003D7E904AB59468B01AC
:1057E000514643EA916351468A015146B2EB0108A2
:1057F000594663EB01094FF000024FF000034FEAF6
:10580000C90343EA58734FEAC802904699462346B3
:1058100018EB0303BB602B4649EB0303FB604FF01F
:1058200000024FF00003D7E9024529468B022146CA
:1058300043EA915321468A02104619467B6C0022A6
:10584000BB62FA62D7E90A23FBF71EFA02460B464F
:105850001346FB6458E0384B5B689B0900221846EE
:105860001146C0F308033B6200237B62D7E9088935
:1058700042464B464FF000004FF00001590141EA0B
:10588000D261500102460B464146B2EB010A49463D
:1058900063EB010B4FF000024FF000034FEA8B1354
:1058A00043EA9A634FEA8A12B2EB0A0463EB0B05F0
:1058B0004FF000024FF00003EB0043EA5473E200A4
:1058C00014461D464346E3183B604B4645EB030335
:1058D0007B604FF000024FF00003D7E900452946F6
:1058E0008B02214643EA915321468A02104619460B
:1058F0007B6C0022BB61FA61D7E90623FBF7C4F990
:1059000002460B461346FB640B4B5B681B0C03F013
:10591000030301335B003B64FA6C3B6CB2FBF3F3B3
:10592000BB6402E0054BBB6400BFBB6C184650373C
:10593000BD46BDE8B08F00BF003802400024F4002F
:1059400080B400AF034B1B681846BD465DF8047B6E
:10595000704700BF0000002080B582B000AF7860C3
:105960007B68002B01D1012341E07B6893F83D3037
:10597000DBB2002B06D17B68002283F83C207868DC
:10598000FCF7B8FC7B68022283F83D207B681A682C
:105990007B6804331946104600F0B4FE7B68012290
:1059A00083F846207B68012283F83E207B68012231
:1059B00083F83F207B68012283F840207B68012226
:1059C00083F841207B68012283F842207B68012212
:1059D00083F843207B68012283F844207B680122FE
:1059E00083F845207B68012283F83D200023184678
:1059F0000837BD4680BD80B582B000AF78607B6857
:105A0000002B01D1012341E07B6893F83D30DBB2EC
:105A1000002B06D17B68002283F83C20786800F0D8
:105A200039F87B68022283F83D207B681A687B681E
:105A300004331946104600F065FE7B68012283F8A6
:105A400046207B68012283F83E207B68012283F890
:105A50003F207B68012283F840207B68012283F885
:105A600041207B68012283F842207B68012283F871
:105A700043207B68012283F844207B68012283F85D
:105A800045207B68012283F83D2000231846083713
:105A9000BD4680BD80B483B000AF786000BF0C37D6
:105AA000BD465DF8047B704780B584B000AF786078
:105AB00039603B68002B04D17B6893F83E30DBB241
:105AC00013E03B68042B04D17B6893F83F30DBB2D2
:105AD0000BE03B68082B04D17B6893F84030DBB2C5
